{
  "transactions": [
    {
      "hash": "0x2335bdabcefd56207c5d8b9b355d37cb6d611c5359b27efe09859626bc963bd2",
      "transactionType": "CREATE",
      "contractName": "NFTFactory",
      "contractAddress": "0xbcf86d9859291f3a493c36d742428e8097cc0d1a",
      "function": null,
      "arguments": null,
      "transaction": {
        "from": "0x756bfb8a31b2a21823152d96c88c6b8ae4ab1e99",
        "gas": "0x3855a6",
        "value": "0x0",
        "input": "0x608060405234601f57600f336023565b506040516131db90816100ac8239f35b5f80fd5b6001600160a01b0381165f9081525f80516020613287833981519152602052604090205460ff1660a6576001600160a01b03165f8181525f8051602061328783398151915260205260408120805460ff191660011790553391907f2f8788117e7eff1d82e926ec794901d17c78024a50270940304540a733656f0d8180a4600190565b505f9056fe6080806040526004361015610012575f80fd5b5f3560e01c90816301ffc9a714610a06575080630da292a61461060357806313df8223146105d1578063248a9ca31461059f5780632911136f1461055f5780632f2ff15d14610522578063335f4c76146104e557806336568abe146104a157806341f9faec146102a457806391d148541461025c578063a217fddf14610242578063be2d146f1461011b578063c909adc0146100fe5763d547741f146100b6575f80fd5b346100fa5760403660031901126100fa576100f86004356100d5610a6f565b906100f36100ee825f525f602052600160405f20015490565b610bf9565b610cb9565b005b5f80fd5b346100fa575f3660031901126100fa576020600454604051908152f35b346100fa5760403660031901126100fa57610134610a59565b61013c610a6f565b335f52600160205260ff60405f205416156101fd576001600160a01b03169033821480156101f5575b156101c25781610199575b6001600160a01b03165f90815260026020526040902080546001600160a01b0319169091179055005b6001600160a01b038181165f908152600260205260409020546101bd911615610bae565b610170565b60405162461bcd60e51b815260206004820152600b60248201526a125b9d985b1a590813919560aa1b6044820152606490fd5b508115610165565b60405162461bcd60e51b815260206004820152601b60248201527f4e4654206973206e6f7420666163746f7279206465706c6f79656400000000006044820152606490fd5b346100fa575f3660031901126100fa5760206040515f8152f35b346100fa5760403660031901126100fa57610275610a6f565b6004355f525f60205260405f209060018060a01b03165f52602052602060ff60405f2054166040519015158152f35b346100fa5760803660031901126100fa5760043567ffffffffffffffff81116100fa57366023820112156100fa5780600401356102e081610afe565b916102ee6040519384610adc565b81835236602483830101116100fa57815f926024602093018386013783010152610316610a6f565b6044356001600160a01b03811691908290036100fa57335f9081527fad3228b676f7d3cd4284a5443f17f1962b36e491b30a40b2405849e597ba5fb5602052604090205460ff161561048a576001600160a01b039081165f81815260026020526040902054909391610389911615610bae565b6040519161246c8084019084821067ffffffffffffffff8311176104765784936103c091610d3a8639608083526080830190610ab8565b918560208301526040820152606060643591015203905ff0801561046b576001600160a01b03165f818152600160208181526040808420805460ff19169093179092558483526002815281832080546001600160a01b031990811686179091556004805485526003909252919092208054909116831790555461044290610b64565b6004557f9b9baa5d69859ba32edc2bc8324addb556bbf24d80c4420733d99d714ab551bd5f80a3005b6040513d5f823e3d90fd5b634e487b7160e01b5f52604160045260245ffd5b63e2517d3f60e01b5f52336004525f60245260445ffd5b346100fa5760403660031901126100fa576104ba610a6f565b336001600160a01b038216036104d6576100f890600435610cb9565b63334bd91960e11b5f5260045ffd5b346100fa5760203660031901126100fa576001600160a01b03610506610a59565b165f526001602052602060ff60405f2054166040519015158152f35b346100fa5760403660031901126100fa576100f8600435610541610a6f565b9061055a6100ee825f525f602052600160405f20015490565b610c31565b346100fa5760203660031901126100fa576001600160a01b03610580610a59565b165f526002602052602060018060a01b0360405f205416604051908152f35b346100fa5760203660031901126100fa5760206105c96004355f525f602052600160405f20015490565b604051908152f35b346100fa5760203660031901126100fa576004355f526003602052602060018060a01b0360405f205416604051908152f35b346100fa5760803660031901126100fa5761061c610a59565b60643561062881610b1a565b6106356040519182610adc565b81815261064182610b1a565b602082019390601f190136853761065783610b32565b9361066184610b32565b9061066b85610b1a565b916106796040519384610adc565b858352601f1961068887610b1a565b015f5b8181106109f357505061069d86610b32565b965f956001600160a01b03909516946024355b6044358110806109ea575b15610908575f818152600360205260408120546001600160a01b031695905b6040516336bea65960e11b81526020816004818b5afa90811561046b575f916108d7575b508110806108ce575b156108bd57604051627eeac760e11b81528960048201528160248201526020816044818b5afa90811561046b575f9161088c575b5080610751575b5061074c90610b64565b6106da565b5f84815260036020526040902054919a916001600160a01b03166107758387610b86565b528a6107818388610b86565b528061078d8389610b86565b526040516303a24d0760e21b8152600481018c90525f816024818c5afa90811561046b578e918b915f916107f3575b508480936107e082856107e6956107da61074c9b6107ec9b99610b86565b52610b86565b50610b86565b52610b64565b9990610742565b94925050503d805f853e6108078185610adc565b8301926020818503126100fa5780519067ffffffffffffffff82116100fa57019183601f840112156100fa5782519261083f84610afe565b9461084d6040519687610adc565b848652602085830101116100fa578f83906107e0828f61074c995f60208b6107ec9c826107e69b018386015e83010152955095975050509395506107bc565b90506020813d82116108b5575b816108a660209383610adc565b810103126100fa57518d61073b565b3d9150610899565b5094506108c990610b64565b6106b0565b508a8a10610707565b90506020813d8211610900575b816108f160209383610adc565b810103126100fa57518d6106fe565b3d91506108e4565b509291869289926040519560c087019060c088525180915260e0870192905f5b8181106109cb575050508161094891876109569594036020890152610a85565b908582036040870152610a85565b8381036060850152845180825260208201916020808360051b8301019701925f915b83831061099e578780886109948c8a8482036080860152610a85565b9060a08301520390f35b90919293976020806109bc600193601f198682030187528c51610ab8565b9a019301930191939290610978565b82516001600160a01b0316855260209485019490920191600101610928565b508888106106bb565b606060208287018101919091520161068b565b346100fa5760203660031901126100fa576004359063ffffffff60e01b82168092036100fa57602091637965db0b60e01b8114908115610a48575b5015158152f35b6301ffc9a760e01b14905083610a41565b600435906001600160a01b03821682036100fa57565b602435906001600160a01b03821682036100fa57565b90602080835192838152019201905f5b818110610aa25750505090565b8251845260209384019390920191600101610a95565b805180835260209291819084018484015e5f828201840152601f01601f1916010190565b90601f8019910116810190811067ffffffffffffffff82111761047657604052565b67ffffffffffffffff811161047657601f01601f191660200190565b67ffffffffffffffff81116104765760051b60200190565b90610b3c82610b1a565b610b496040519182610adc565b8281528092610b5a601f1991610b1a565b0190602036910137565b5f198114610b725760010190565b634e487b7160e01b5f52601160045260245ffd5b8051821015610b9a5760209160051b010190565b634e487b7160e01b5f52603260045260245ffd5b15610bb557565b606460405162461bcd60e51b815260206004820152602060248201527f41646d696e20616c726561647920686173206173736f636961746564204e46546044820152fd5b5f8181526020818152604080832033845290915290205460ff1615610c1b5750565b63e2517d3f60e01b5f523360045260245260445ffd5b5f818152602081815260408083206001600160a01b038616845290915290205460ff16610cb3575f818152602081815260408083206001600160a01b0395909516808452949091528120805460ff19166001179055339291907f2f8788117e7eff1d82e926ec794901d17c78024a50270940304540a733656f0d9080a4600190565b50505f90565b5f818152602081815260408083206001600160a01b038616845290915290205460ff1615610cb3575f818152602081815260408083206001600160a01b0395909516808452949091528120805460ff19169055339291907ff6391f5c32d9c69d2a47ea670b442974b53935d1edc7fd64eb21e047a839171b9080a460019056fe60806040523461030c5761246c8038038061001981610310565b92833981019060808183031261030c5780516001600160401b03811161030c57810182601f8201121561030c578051906001600160401b0382116102c45761006a601f8301601f1916602001610310565b938285526020838301011161030c57815f9260208093018387015e8401015261009560208201610335565b60606100a360408401610335565b920151916020915f6100b484610310565b52600254600181811c91168015610302575b848210146102a657601f81116102d8575b506100ef905f6002556100e932610349565b506103bf565b505f8051602061242c8339815191525f52600582525f8051602061242c833981519152600160405f200154815f526005845281600160405f200155817fbd79b86ffe0ab8e8776151514217cd7cacd52c909f66475c3af44e129f0b00ff5f80a4600d80546001600160a01b0319166001600160a01b03929092169190911790558251906001600160401b0382116102c457600c54600181811c911680156102ba575b828210146102a657601f8111610262575b5080601f83116001146101fe57508192935f926101f3575b50508160011b915f199060031b1c191617600c555b600b55600e80546001600160a01b03191633179055604051611fa690816104668239f35b015190505f806101ba565b90601f19831694600c5f52825f20925f905b87821061024a575050836001959610610232575b505050811b01600c556101cf565b01515f1960f88460031b161c191690555f8080610224565b80600185968294968601518155019501930190610210565b600c5f52815f20601f840160051c81019183851061029c575b601f0160051c01905b81811061029157506101a2565b5f8155600101610284565b909150819061027b565b634e487b7160e01b5f52602260045260245ffd5b90607f1690610191565b634e487b7160e01b5f52604160045260245ffd5b60025f52601f845f20910160051c8101905b8181106102f757506100d7565b5f81556001016102ea565b90607f16906100c6565b5f80fd5b6040519190601f01601f191682016001600160401b038111838210176102c457604052565b51906001600160a01b038216820361030c57565b6001600160a01b0381165f9081525f8051602061244c833981519152602052604090205460ff166103ba576001600160a01b03165f8181525f8051602061244c83398151915260205260408120805460ff191660011790553391905f8051602061240c8339815191528180a4600190565b505f90565b6001600160a01b0381165f9081527f79ed740027bf2a2d788cad2f071271c4cc92108c1a879ef33ec044da1905c17f602052604090205460ff166103ba576001600160a01b03165f8181527f79ed740027bf2a2d788cad2f071271c4cc92108c1a879ef33ec044da1905c17f60205260408120805460ff191660011790553391905f8051602061242c833981519152905f8051602061240c8339815191529080a460019056fe60806040526004361015610011575f80fd5b5f3560e01c8062fdd58e1461020357806301ffc9a7146101fe578063047a35a4146101f9578063061f8aa6146101f457806306fdde03146101ef5780630d1e691a146101ea5780630e89341c146101e55780630fe18841146101e057806318160ddd146101db578063248a9ca3146101d65780632d6c8ed5146101d15780632eb2c2d6146101cc5780632f2ff15d146101c757806336568abe146101c257806344663cc2146101bd5780634e1273f4146101b85780634f558e79146101b357806350a8ae61146101ae578063535ca46c146101a957806361d027b3146101a45780636d7d4cb21461019f578063846a98981461019a57806391d1485414610195578063a217fddf14610190578063a22cb4651461018b578063bd85b03914610186578063c45a015514610181578063d547741f1461017c578063e985e9c514610177578063ea5df059146101725763f242432a1461016d575f80fd5b611190565b61113d565b6110ed565b611050565b611028565b610ffe565b610f4c565b610f32565b610ee3565b610ec6565b610ea9565b610e81565b610e1a565b610d6d565b610d39565b610c7a565b610b6a565b610a73565b6109ad565b610923565b610888565b610855565b610838565b610751565b6106d1565b61068e565b6105b4565b61040a565b610339565b6102a6565b61024c565b600435906001600160a01b038216820361021e57565b5f80fd5b602435906001600160a01b038216820361021e57565b35906001600160a01b038216820361021e57565b3461021e57604036600319011261021e57602061028b61026a610208565b6024355f525f835260405f209060018060a01b03165f5260205260405f2090565b54604051908152f35b6001600160e01b031981160361021e57565b3461021e57602036600319011261021e576004356102c381610294565b63ffffffff60e01b16637965db0b60e01b81149081156102ec575b506040519015158152602090f35b636cdb3d1360e11b81149150811561031e575b811561030d575b505f6102de565b6301ffc9a760e01b1490505f610306565b6303a24d0760e21b811491506102ff565b5f91031261021e57565b3461021e575f36600319011261021e576020600b54604051908152f35b634e487b7160e01b5f52604160045260245ffd5b60a081019081106001600160401b0382111761038557604052565b610356565b90601f801991011681019081106001600160401b0382111761038557604052565b6001600160401b03811161038557601f01601f191660200190565b81601f8201121561021e576020813591016103e0826103ab565b926103ee604051948561038a565b8284528282011161021e57815f92602092838601378301015290565b3461021e57608036600319011261021e576004356001600160401b03811161021e5761043a9036906004016103c6565b6024356001600160401b03811161021e576104599036906004016103c6565b906044356001600160401b03811161021e576104799036906004016103c6565b606435926001600160401b03841161021e5761049c6104a29436906004016103c6565b92611296565b005b90600182811c921680156104d2575b60208310146104be57565b634e487b7160e01b5f52602260045260245ffd5b91607f16916104b3565b9060405191825f8254926104ef846104a4565b808452936001811690811561055a5750600114610516575b506105149250038361038a565b565b90505f9291925260205f20905f915b81831061053e575050906020610514928201015f610507565b6020919350806001915483858901015201910190918492610525565b90506020925061051494915060ff191682840152151560051b8201015f610507565b805180835260209291819084018484015e5f828201840152601f01601f1916010190565b9060206105b192818152019061057c565b90565b3461021e575f36600319011261021e576040515f600c546105d4816104a4565b808452906001811690811561066a575060011461060c575b610608836105fc8185038261038a565b604051918291826105a0565b0390f35b600c5f9081527fdf6966c971051c3d54ec59162606531493a51404a002842f56009d7e5cf4a8c7939250905b808210610650575090915081016020016105fc6105ec565b919260018160209254838588010152019101909291610638565b60ff191660208086019190915291151560051b840190910191506105fc90506105ec565b3461021e57602036600319011261021e576106a7610208565b6106af611744565b600d80546001600160a01b0319166001600160a01b0392909216919091179055005b3461021e57602036600319011261021e576004356106fa815f52600360205260405f2054151590565b15610718575f5260076020526106086105fc600260405f20016104dc565b60405162461bcd60e51b81526020600482015260116024820152702737b732bc34b9ba32b73a103a37b5b2b760791b6044820152606490fd5b3461021e57606036600319011261021e576024356004356044356001600160401b03811161021e576107879036906004016103c6565b91610790611744565b805f52600660205260ff600460405f20015416156107fb576107e89282916107cf6107c5600a545f52600760205260405f2090565b92600284016113e0565b600182015555600a54906107e16114d2565b91336117da565b6104a26107f6600a546114bf565b600a55565b60405162461bcd60e51b815260206004820152601560248201527414da5b99d95c88191bd95cc81b9bdd08195e1a5cdd605a1b6044820152606490fd5b3461021e575f36600319011261021e576020600454604051908152f35b3461021e57602036600319011261021e5760206108806004355f526005602052600160405f20015490565b604051908152f35b3461021e575f36600319011261021e5760206040515f80516020611f518339815191528152f35b6001600160401b0381116103855760051b60200190565b9080601f8301121561021e5781356108dd816108af565b926108eb604051948561038a565b81845260208085019260051b82010192831161021e57602001905b8282106109135750505090565b8135815260209182019101610906565b3461021e5760a036600319011261021e5761093c610208565b610944610222565b906044356001600160401b03811161021e576109649036906004016108c6565b6064356001600160401b03811161021e576109839036906004016108c6565b90608435936001600160401b03851161021e576109a76104a29536906004016103c6565b936114e6565b3461021e57604036600319011261021e576004355f80516020611f518339815191526109d7610222565b916109f66109f1825f526005602052600160405f20015490565b6117a0565b610a0083826118b9565b5014610a0857005b600e546001600160a01b0316803b1561021e5760405163be2d146f60e01b81526001600160a01b0390921660048301523060248301525f908290818381604481015b03925af18015610a6e57610a5a57005b80610a685f6104a29361038a565b8061032f565b611542565b3461021e57604036600319011261021e57600435610a8f610222565b336001600160a01b03821603610aa8576104a291611949565b63334bd91960e11b5f5260045ffd5b602081016020825282518091526040820191602060408360051b8301019401925f915b838310610ae957505050505090565b9091929394602080600192603f19858203018652885190608080610b53610b41610b2f610b1f875160a0885260a088019061057c565b888801518782038a89015261057c565b6040870151868203604088015261057c565b6060860151858203606087015261057c565b930151151591015297019301930191939290610ada565b3461021e57604036600319011261021e576004356024356009548111610c0357610b968282101561154d565b610ba8610ba3838361158e565b61159b565b91805b828110610bc057604051806106088682610ab7565b80610bfc610bd86001935f52600660205260405f2090565b610beb610be5868561158e565b91611633565b610bf5828961160b565b528661160b565b5001610bab565b60405162461bcd60e51b815260206004820152600b60248201526a125b9d985b1a5908195b9960aa1b6044820152606490fd5b90602080835192838152019201905f5b818110610c535750505090565b8251845260209384019390920191600101610c46565b9060206105b1928181520190610c36565b3461021e57604036600319011261021e576004356001600160401b03811161021e573660238201121561021e57806004013590610cb6826108af565b91610cc4604051938461038a565b8083526024602084019160051b8301019136831161021e57602401905b828210610d2157836024356001600160401b03811161021e5761060891610d0f610d159236906004016108c6565b90611690565b60405191829182610c69565b60208091610d2e84610238565b815201910190610ce1565b3461021e57602036600319011261021e576020610d636004355f52600360205260405f2054151590565b6040519015158152f35b3461021e57602036600319011261021e576004355f526006602052610de460405f20610d98816104dc565b90610e0e610da8600183016104dc565b91610e00610db8600283016104dc565b610df260ff6004610dcb600387016104dc565b950154169560405198899860a08a5260a08a019061057c565b9088820360208a015261057c565b90868203604088015261057c565b90848203606086015261057c565b90151560808301520390f35b3461021e57602036600319011261021e57335f9081527f05b8ccbb9d4d8fb16ea74ce3c29a41f1b461fbdaff4714a0d9a8eb05499746bc60205260409020546004359060ff1615610e6a57600b55005b63e2517d3f60e01b5f52336004525f60245260445ffd5b3461021e575f36600319011261021e57600d546040516001600160a01b039091168152602090f35b3461021e575f36600319011261021e576020600a54604051908152f35b3461021e575f36600319011261021e576020600954604051908152f35b3461021e57604036600319011261021e57602060ff610f26600435610f06610222565b905f526005845260405f209060018060a01b03165f5260205260405f2090565b54166040519015158152f35b3461021e575f36600319011261021e5760206040515f8152f35b3461021e57604036600319011261021e57610f65610208565b602435908115159081830361021e576001600160a01b038116928315610fec57610fad610fbe92335f52600160205260405f209060018060a01b03165f5260205260405f2090565b9060ff801983541691151516179055565b6040519081527f17307eab39ab6107e8899845ad3d59bd9653f200f220920489ca2b5937696c3160203392a3005b62ced3e160e81b5f525f60045260245ffd5b3461021e57602036600319011261021e576004355f526003602052602060405f2054604051908152f35b3461021e575f36600319011261021e57600e546040516001600160a01b039091168152602090f35b3461021e57604036600319011261021e576004355f80516020611f5183398151915261107a610222565b916110946109f1825f526005602052600160405f20015490565b61109e8382611949565b50146110a657005b600e546001600160a01b0316803b1561021e5760405163be2d146f60e01b81526001600160a01b0390921660048301525f6024830181905290829081838160448101610a4a565b3461021e57604036600319011261021e57602060ff610f2661110d610208565b611115610222565b6001600160a01b039182165f9081526001865260408082209290931681526020919091522090565b3461021e57602036600319011261021e576004355f52600760205260405f2080546106086111726002600185015494016104dc565b6040519384938452602084015260606040840152606083019061057c565b3461021e5760a036600319011261021e576111a9610208565b6111b1610222565b60443590606435926084356001600160401b03811161021e576111d89036906004016103c6565b926001600160a01b0382163381141580611273575b61125d576001600160a01b0384161561124a5715611238576104a29461123060405192600184526020840152604083019160018352606084015260808301604052565b9290916119d1565b626a0d4560e21b5f525f60045260245ffd5b632bfa23e760e11b5f525f60045260245ffd5b63711bec9160e11b5f523360045260245260445ffd5b505f81815260016020908152604080832033845290915290205460ff16156111ed565b90916112a0611744565b60ff6112ab83611372565b541661133557600461131593611302611322966112f9611310956112f06112dc6009545f52600660205260405f2090565b956112e78a886113e0565b600187016113e0565b600285016113e0565b600383016113e0565b01805460ff19166001179055565b611372565b805460ff19166001179055565b6105146113306009546114bf565b600955565b60405162461bcd60e51b815260206004820152601560248201527453696e67657220616c72656164792065786973747360581b6044820152606490fd5b60208091604051928184925191829101835e8101600881520301902090565b601f821161139e57505050565b5f5260205f20906020601f840160051c830193106113d6575b601f0160051c01905b8181106113cb575050565b5f81556001016113c0565b90915081906113b7565b91909182516001600160401b038111610385576114078161140184546104a4565b84611391565b6020601f82116001146114465781906114379394955f9261143b575b50508160011b915f199060031b1c19161790565b9055565b015190505f80611423565b601f19821690611459845f5260205f2090565b915f5b8181106114935750958360019596971061147b575b505050811b019055565b01515f1960f88460031b161c191690555f8080611471565b9192602060018192868b01518155019401920161145c565b634e487b7160e01b5f52601160045260245ffd5b5f1981146114cd5760010190565b6114ab565b604051906114e160208361038a565b5f8252565b939291906001600160a01b038516338114158061151f575b61125d576001600160a01b0382161561124a571561123857610514946119d1565b505f81815260016020908152604080832033845290915290205460ff16156114fe565b6040513d5f823e3d90fd5b1561155457565b60405162461bcd60e51b8152602060048201526012602482015271496e76616c696420706172616d657465727360701b6044820152606490fd5b919082039182116114cd57565b906115a5826108af565b6115b2604051918261038a565b82815280926115c3601f19916108af565b01905f5b8281106115d357505050565b6020906040516115e28161036a565b60608152606083820152606060408201526060808201525f6080820152828285010152016115c7565b805182101561161f5760209160051b010190565b634e487b7160e01b5f52603260045260245ffd5b906040516116408161036a565b608060ff60048395611651816104dc565b855261165f600182016104dc565b6020860152611670600282016104dc565b6040860152611681600382016104dc565b60608601520154161515910152565b9190918051835180820361172f5750508051906116ac826108af565b916116ba604051938461038a565b8083526116c9601f19916108af565b013660208401375f5b8151811015611728578061171760019260051b60208082870101519189010151905f918252602082815260408084206001600160a01b03909316845291905290205490565b611721828661160b565b52016116d2565b5090925050565b635b05999160e01b5f5260045260245260445ffd5b335f9081527f79ed740027bf2a2d788cad2f071271c4cc92108c1a879ef33ec044da1905c17f602052604090205460ff161561177c57565b63e2517d3f60e01b5f52336004525f80516020611f5183398151915260245260445ffd5b5f81815260056020908152604080832033845290915290205460ff16156117c45750565b63e2517d3f60e01b5f523360045260245260445ffd5b93916001600160a01b0385161561124a5761181260405192600184526020840152604083019160018352606084015260808301604052565b90916118208284875f611d81565b5f94855b84518710156118755761186d60019161183d898761160b565b519061185b61184c8b8a61160b565b515f52600360205260405f2090565b611866838254611aeb565b9055611aeb565b960195611824565b61188f91959492965061188a90600454611aeb565b600455565b80516001036118ae579060208061051495930151910151915f33611cbe565b610514935f33611b8f565b5f8181526005602090815260408083206001600160a01b038616845290915290205460ff16611943575f8181526005602090815260408083206001600160a01b03861684529091529020805460ff1916600117905533916001600160a01b0316907f2f8788117e7eff1d82e926ec794901d17c78024a50270940304540a733656f0d5f80a4600190565b50505f90565b5f8181526005602090815260408083206001600160a01b038616845290915290205460ff1615611943575f8181526005602090815260408083206001600160a01b03861684529091529020805460ff1916905533916001600160a01b0316907ff6391f5c32d9c69d2a47ea670b442974b53935d1edc7fd64eb21e047a839171b5f80a4600190565b919392906119e182868386611d81565b6001600160a01b03831615611a9a575b6001600160a01b0381161580611a46575b15611a0f575b5050505050565b8451600103611a3557602080611a2b9601519201519233611cbe565b5f80808080611a08565b611a4194919233611b8f565b611a2b565b94935f939091845b8651861015611a8257600190611a64878761160b565b5190611a7361184c898b61160b565b82815403905501950194611a4e565b611a959193969792955060045403600455565b611a02565b93925f92835b8551851015611ad057611ac8600191611ab9878761160b565b519061185b61184c898b61160b565b940193611aa0565b611ae691945061188a9096929596600454611aeb565b6119f1565b919082018092116114cd57565b9081602091031261021e57516105b181610294565b6001600160a01b0391821681529116602082015260a0604082018190526105b19491939192611b529291611b449190860190610c36565b908482036060860152610c36565b91608081840391015261057c565b3d15611b8a573d90611b71826103ab565b91611b7f604051938461038a565b82523d5f602084013e565b606090565b9091949293853b611ba3575b505050505050565b602093611bc591604051968795869563bc197c8160e01b875260048701611b0d565b03815f6001600160a01b0387165af15f9181611c54575b50611c165750611bea611b60565b8051919082611c0f57632bfa23e760e11b5f526001600160a01b03821660045260245ffd5b9050602001fd5b6001600160e01b0319166343e6837f60e01b01611c3957505f8080808080611b9b565b632bfa23e760e11b5f526001600160a01b031660045260245ffd5b611c7791925060203d602011611c7e575b611c6f818361038a565b810190611af8565b905f611bdc565b503d611c65565b6001600160a01b039182168152911660208201526040810191909152606081019190915260a0608082018190526105b19291019061057c565b9091949293853b611cd157505050505050565b602093611cf391604051968795869563f23a6e6160e01b875260048701611c85565b03815f6001600160a01b0387165af15f9181611d3b575b50611d185750611bea611b60565b6001600160e01b031916630dc5919f60e01b01611c3957505f8080808080611b9b565b611d5591925060203d602011611c7e57611c6f818361038a565b905f611d0a565b9091611d736105b193604084526040840190610c36565b916020818403910152610c36565b9392918051835190818103611f3b5750505f5b8151811015611e95578060051b90602080838501015192860101518460018060a01b038916611e18575b6001936001600160a01b038216611dd9575b50505001611d94565b611e0e91611df1611e06925f525f60205260405f2090565b9060018060a01b03165f5260205260405f2090565b918254611aeb565b90555f8481611dd0565b509091611e3088611df1835f525f60205260405f2090565b54828110611e5e57829160019493879203611e568b611df1845f525f60205260405f2090565b559350611dbe565b6040516303dee4c560e01b81526001600160a01b038a16600482015260248101919091526044810183905260648101829052608490fd5b508051939493919291600103611ef8576020908101519181015160408051938452918301526001600160a01b03928316939092169133917fc3d58168c5ae7397731d063d5bbf3d657854427343f4c083240f7aacaa2d0f6291819081015b0390a4565b6040516001600160a01b03938416949093169233927f4a39dc06d4c0dbc64b70af90fd698a233a518aa5d07e595d983b8c0526c8f7fb928291611ef39183611d5c565b635b05999160e01b5f5260045260245260445ffdfe768dd85fed03ac9c2c0f14fe090b045c29124f162b5fa7d6dd8ca0009807d4dba264697066735822122023ca39a5160713ccd935bc9754a6c884baa93f9cc32505daf1d0136c0e03efd764736f6c634300081a00332f8788117e7eff1d82e926ec794901d17c78024a50270940304540a733656f0d768dd85fed03ac9c2c0f14fe090b045c29124f162b5fa7d6dd8ca0009807d4db05b8ccbb9d4d8fb16ea74ce3c29a41f1b461fbdaff4714a0d9a8eb05499746bca26469706673582212200ac89d0151cc5f1b1a438938447e1e0fb315ccc236e80a673756d7bc8d5c387a64736f6c634300081a0033ad3228b676f7d3cd4284a5443f17f1962b36e491b30a40b2405849e597ba5fb5",
        "nonce": "0xa6",
        "chainId": "0x13882"
      },
      "additionalContracts": [],
      "isFixedGasLimit": false
    },
    {
      "hash": "0x24e4dc92575781fc0b9bc66222490261fee2f18da5b8aa1cbc58f57a5ea30717",
      "transactionType": "CREATE",
      "contractName": "Marketplace",
      "contractAddress": "0x69f2b0aaed1adf60d6f3c69ff3c35d5564754b61",
      "function": null,
      "arguments": [
        "0xBcf86D9859291f3A493c36d742428E8097Cc0d1A",
        "0x492575382bd9fB683E76E793C7e40Ea1Df4B4ac0",
        "50000"
      ],
      "transaction": {
        "from": "0x756bfb8a31b2a21823152d96c88c6b8ae4ab1e99",
        "gas": "0x2fce03",
        "value": "0x0",
        "input": "0x6080346100a857601f6129e838819003918201601f19168301916001600160401b038311848410176100ac578084926060946040528339810103126100a857610047816100c0565b906040610056602083016100c0565b91015160018055600680546001600160a01b039485166001600160a01b03199182161790915560028054949093169316929092179055600355610098336100d4565b5060405161286a908161015e8239f35b5f80fd5b634e487b7160e01b5f52604160045260245ffd5b51906001600160a01b03821682036100a857565b6001600160a01b0381165f9081525f805160206129c8833981519152602052604090205460ff16610158576001600160a01b03165f8181525f805160206129c883398151915260205260408120805460ff191660011790553391907f2f8788117e7eff1d82e926ec794901d17c78024a50270940304540a733656f0d8180a4600190565b505f9056fe6080806040526004361015610012575f80fd5b5f905f3560e01c90816301ffc9a714611f0657508063248a9ca314611ed45780632554dda814611eac57806329fc7bd814611e8f5780632f2ff15d14611e5257806336568abe14611e0c57806340e58ee514611cf2578063571a26a014611c29578063598647f8146119cc578063815b5a64146116ed5780638237016b146114b15780638704f2a3146114825780638c717291146114645780638f9a372d1461142457806391d14854146113db578063a217fddf146113bf578063a7e76644146113a1578063a85c38ef14611311578063b789bf52146112f3578063b9a2de3a14610ef8578063c20925c914610e71578063c21b27a214610abf578063cb2d93ce14610a7f578063d547741f14610a38578063d63843cd14610a0f578063d6febde8146103c3578063dbe11bb3146101ce5763f23a6e6114610152575f80fd5b346101c35760a03660031901126101c35761016b611f85565b50610174611f59565b5060843567ffffffffffffffff81116101ca57366023820112156101ca57806004013567ffffffffffffffff81116101c657369101602401116101c35760405163f23a6e6160e01b8152602090f35b80fd5b8280fd5b5080fd5b50346101c35760a03660031901126101c3576101e8611f85565b60443590602435906084356064356001600160a01b038216820361037a5761021185151561231d565b6006546040516319afa63b60e11b81526001600160a01b0394851660048201819052949091602091839160249183918c91165af180156103b85761025c918891610389575b50612381565b823b1561037a57604051637921219560e11b815286908181806102858a8a3033600486016120dc565b038183895af1801561037e5761035d575b5061035760078686867fda48d1d468794cea4155aceb51a52f16b0c495ed6a5fbe3283972f05d95c823f60608c896004548a528760205260408a209460018060a01b03166001600160601b0360a01b8654161785558060018601558160028601558660048601556005850160018060a01b0333166001600160601b0360a01b82541617905560068501866001600160601b0360a01b8254161790558160038601556004548098819601556040519182526020820152336040820152a461230f565b60045580f35b8161036c9196959493966120ba565b61037a57909192855f610296565b8580fd5b6040513d84823e3d90fd5b6103ab915060203d6020116103b1575b6103a381836120ba565b810190612369565b5f610256565b503d610399565b6040513d89823e3d90fd5b506103cd36611f9b565b6103d8929192612635565b815f805160206128158339815191528180a26103f7600454841061202d565b6040519260015f805160206128158339815191528480a280835260076020526040832060025f805160206128158339815191528580a2600581019460018060a01b0386541633146109d5575060405160035f805160206128158339815191528680a283156109a357506040519060045f805160206128158339815191528680a2600381019182548511610961575060055f805160206128158339815191528680a2600681810180546001600160a01b0316979092915f805160206128158339815191528880a26104cb8660018401546123c2565b60075f805160206128158339815191528980a2620f42406104ee600354836123c2565b04918860208b60046040518481959360085f80516020612815833981519152838597a263011e8d6960e21b83525af1908115610956578a9161091e575b5061053a620f424091846123c2565b0492898060405160095f805160206128158339815191528380a26339e0829d60e21b60208201908152602482018790526044820185905260648083018990528252906105876084826120ba565b51906a636f6e736f6c652e6c6f675afa506105ab846105a68386612202565b612202565b92600a5f805160206128158339815191528c80a285546001600160a01b031680610804575060405190600b5f805160206128158339815191528d80a234106107cd5750986020819b61062983999a9b9c600c5f805160206128158339815191528680a26002546001600160a01b0316906106236123f4565b916126c6565b600460405184819593600d5f80516020612815833981519152838597a26361d027b360e01b83525af180156103b8576106969461067092899261079c575b5061062361242f565b600e5f805160206128158339815191528780a2546001600160a01b031690610623612474565b600f5f805160206128158339815191528480a25b60046040519260155f805160206128158339815191528680a2549101546001600160a01b0390911690813b156107985783918383816106fa8b8296637921219560e11b84523330600486016120dc565b03925af1801561037e57610783575b505f8051602061281583398151915281601692a2610728838254612202565b90556040519160175f805160206128158339815191528580a282527f1e7abafb1a786c4e6394b5c494f50a97e3802ff2ce462eca4fe6a2dd4e1f92e860203393a360185f805160206128158339815191528280a26001805580f35b8161078d916120ba565b61079857835f610709565b8380fd5b6107bf91925060203d6020116107c6575b6107b781836120ba565b8101906123d5565b905f610667565b503d6107ad565b62461bcd60e51b8152602060048201526012602482015271496e73756666696369656e742066756e647360701b6044820152606490fd5b9161083161085b928d9e979460108f9c9d9e9f805f8051602061281583398151915291a230903390612707565b60115f805160206128158339815191528a80a286546002546001600160a01b039081169116612655565b6040519060125f805160206128158339815191528980a285546361d027b360e01b83526001600160a01b031694602090839060049082908c905af18015610913576108da956108b1938a926108f2575b50612655565b60135f805160206128158339815191528780a2835490546001600160a01b039081169116612655565b60145f805160206128158339815191528480a26106aa565b61090c91925060203d6020116107c6576107b781836120ba565b905f6108ab565b6040513d8a823e3d90fd5b90506020813d60201161094e575b81610939602093836120ba565b8101031261094a575161053a61052b565b5f80fd5b3d915061092c565b6040513d8c823e3d90fd5b62461bcd60e51b815260206004820152601860248201527f4e6f7420656e6f75676820746f6b656e7320746f2062757900000000000000006044820152606490fd5b62461bcd60e51b815260206004820152600d60248201526c125b9d985b1a48185b5bdd5b9d609a1b6044820152606490fd5b62461bcd60e51b8152602060048201526015602482015274213abcb2b91031b0b73737ba1031329037bbb732b960591b6044820152606490fd5b50346101c357806003193601126101c3576006546040516001600160a01b039091168152602090f35b50346101c35760403660031901126101c357610a7b600435610a58611f59565b90610a76610a71825f525f602052600160405f20015490565b6124f5565b6125b5565b5080f35b50346101c35760203660031901126101c357610a99611f85565b610aa16124a6565b60018060a01b03166001600160601b0360a01b600654161760065580f35b50346101c35760803660031901126101c35760043590602435610ae0611f6f565b926064356001600160a01b038116929083900361079857610b0560055482111561217c565b610b108183106121b6565b8392610b1c8383612202565b95610b2687612223565b96610b3460405198896120ba565b808852610b43601f1991612223565b01865b818110610e0e575050610b61610b5c8585612202565b61223b565b935b838110610c52575050505060405192606084016060855285518091526020608086019601915b818110610bb05750505083610ba691848096036020860152611fd5565b9060408301520390f35b8251805188526020818101516001600160a01b03908116828b0152604080840151908b0152606080840151908b0152608080840151908b015260a080840151908b015260c080840151908b015260e0808401518216908b0152610100808401518216908b015261012080840151909116908a0152610140808301511515908a015261016091820151918901919091526101809097019690920191600101610b89565b8087526008602052604087208760405191610c6c8361209d565b8054835260018101546001600160a01b039081166020850152600282015460408501526003820154606085015260048201546080850152600582015460a080860191909152600683015460c08601526007830154821660e08601819052600884015483166101008701908152600985015493841661012088018190529390921c60ff16158015610140880152600a909401546101608701529092919082610de4575b5081610dc8575b50610d26575b505050600101610b63565b82610d348a8d9b969b612284565b52610d3f848c612284565b505191516040516303a24d0760e21b8152600481019190915291829060249082906001600160a01b03165afa9081156109135791610d9d916001938a91610da6575b50610d8c8289612284565b52610d978188612284565b5061230f565b9590875f610d1b565b610dc291503d808c833e610dba81836120ba565b8101906122ac565b5f610d81565b871591508115610dda575b505f610d15565b905086145f610dd3565b9091506001600160a01b0387168015918215610e04575b5050905f610d0e565b1490505f80610dfb565b602090604051610e1d8161209d565b89815289838201528960408201528960608201528960808201528960a08201528960c08201528960e08201528961010082015289610120820152896101408201528961016082015282828c01015201610b46565b50346101c35760203660031901126101c357600435610e8e6124a6565b620f42408111610ec357806003557fd5af243a680d416ec0ded4cb5fd54058051276938f03d5822332c896d808f5c58280a280f35b60405162461bcd60e51b815260206004820152600d60248201526c466565206f766572203130302560981b6044820152606490fd5b50346101c35760203660031901126101c357600435610f15612635565b8082526009602052610f2d60ff604084205416612114565b80825260086020526040822090600482015442106112ae57600982019160ff835460a01c16611269578360058201918254600282015411155f146111cd576008810160018060a01b038154168454620f4240610f8b600354836123c2565b60405163011e8d6960e21b8152919004916020826004818a885af19182156103b8578792611195575b50610fc48792620f4240926123c2565b0492610fd5846105a6858b54612202565b6001870180549194916001600160a01b0316806111225750506002546020929161100b916001600160a01b0316906106236123f4565b6004604051809481936361d027b360e01b83525af18015611117576110549361103d92889261079c575061062361242f565b60078401546001600160a01b031690610623612474565b54855482546006909301546001600160a01b0391821692909116803b156111135761109a9385809460405196879586948593637921219560e11b855230600486016120dc565b03925af1801561037e576110fe575b505060207fd2aa34a4fdbbc6dff6a3e56f46e0f3ae2a31d7785ff3487aa5c95c642acea501915b845460ff60a01b198116600160a01b17909555546040519081526001600160a01b0390941693a36001805580f35b81611108916120ba565b61079857835f6110a9565b8480fd5b6040513d88823e3d90fd5b9161113c919493969260018060a01b036002541690612655565b602060018060a01b03845416956004604051809581936361d027b360e01b83525af180156109135761119095611178938a926108f25750612655565b5460078501546001600160a01b039081169116612655565b611054565b915095506020813d6020116111c5575b816111b2602093836120ba565b8101031261094a57518995610fc4610fb4565b3d91506111a5565b6008810154600782015482546006909301546001600160a01b0391821692909116803b156111135761121a9385809460405196879586948593637921219560e11b855230600486016120dc565b03925af1801561037e57611254575b505060207fd2aa34a4fdbbc6dff6a3e56f46e0f3ae2a31d7785ff3487aa5c95c642acea501916110d0565b8161125e916120ba565b61079857835f611229565b60405162461bcd60e51b815260206004820152601760248201527f41756374696f6e20616c726561647920636c61696d65640000000000000000006044820152606490fd5b60405162461bcd60e51b815260206004820152601860248201527f41756374696f6e206973207374696c6c206f6e676f696e6700000000000000006044820152606490fd5b50346101c357806003193601126101c3576020600454604051908152f35b50346101c35760203660031901126101c357604061010091600435815260076020522060018060a01b03815416906001810154906002810154600382015460048301549060018060a01b0360058501541692600760018060a01b0360068701541695015495604051978852602088015260408701526060860152608085015260a084015260c083015260e0820152f35b50346101c357806003193601126101c3576020600554604051908152f35b50346101c357806003193601126101c357602090604051908152f35b50346101c35760403660031901126101c35760406113f7611f59565b91600435815280602052209060018060a01b03165f52602052602060ff60405f2054166040519015158152f35b50346101c35760203660031901126101c35761143e611f85565b6114466124a6565b60018060a01b03166001600160601b0360a01b600254161760025580f35b50346101c357806003193601126101c3576020600354604051908152f35b50346101c35760203660031901126101c35760ff60406020926004358152600984522054166040519015158152f35b50346101c35760e03660031901126101c3576114cb611f85565b6084359060a435906064359060c43590602435906044356001600160a01b0384168403611699576114fd81151561231d565b428611156116a8576006546040516319afa63b60e11b81526001600160a01b0393841660048201819052939091602091839160249183918e91165af1801561169d5761154f918a916103895750612381565b813b1561169957604051637921219560e11b8152889081818061157886893033600486016120dc565b038183885af1801561037e57611676575b50600580548252600860208181526040808520600180820180546001600160a01b03199081166001600160a01b038e1617909155600283018d9055600383018f9055600483018e90558287018890556006830189905560078301805482163317905594820180549095168917909455600980820180548b84556001600160a81b03191690558554600a9092018290559086528252808520805460ff1916909317909255915481518981529283018b90529082018990526116709181907fa3e9c29f3df21edd1eb86fe6ed70e85cf557539b86a3e94e33ce37dbe3026ca390606090a261230f565b60055580f35b8161168791999598979496996120ba565b61169957875f97949295969397611589565b8780fd5b6040513d8b823e3d90fd5b60405162461bcd60e51b815260206004820152601e60248201527f446561646c696e65206d75737420626520696e207468652066757475726500006044820152606490fd5b50346101c35760603660031901126101c3576004359060243561170e611f6f565b9261171d60045483111561217c565b6117288282106121b6565b82916117348282612202565b9461173e86612223565b9561174c60405197886120ba565b80875261175b601f1991612223565b01855b818110611985575050611774610b5c8484612202565b925b82811061182e5750505060405192606084016060855285518091526020608086019601915b8181106117b85750505083610ba691848096036020860152611fd5565b909195602061010060019260e08a51858060a01b0381511683528481015185840152604081015160408401526060810151606084015260808101516080840152858060a01b0360a08201511660a0840152858060a01b0360c08201511660c0840152015160e0820152019701910191909161179b565b80865260076020526040862086604051916118488361206c565b80546001600160a01b03908116845260018201546020850152600282015460408501526003820154606085018190526004830154608086019081526005840154831660a08701819052600685015490931660c0870190815260079094015460e08701529491901515908161195d575b506118c9575b50505050600101611776565b6118d6898c9a969a612284565b526118e1848b612284565b505191516040516303a24d0760e21b8152600481019190915291829060249082906001600160a01b03165afa9081156103b85791611939916001938991611943575b5061192e8288612284565b52610d978187612284565b9490865f806118bd565b61195791503d808b833e610dba81836120ba565b5f611923565b6001600160a01b0388168015925090821561197b575b50505f6118b7565b1490505f80611973565b6020906040516119948161206c565b88815288838201528860408201528860608201528860808201528860a08201528860c08201528860e082015282828b0101520161175e565b506119d636611f9b565b6119de612635565b9080835260096020526119f760ff604085205416612114565b8083526008602052604083206004810154421015611bf0576001810180546001600160a01b03168015929183611be8575b60028301548610611ba3576005830191825460038501548101808211611b8f578810611b4a5760098895019560018060a01b038754169081611adb575b505091546001600160a01b0316915083905081611ac7575b50505580546001600160a01b03191633908117909155604051928352917f558a0d5d5468d74b0db24c74eb348b42271c2ebb4c9e953ced38aaed95fa436190602090a36001805580f35b611ad49130903390612707565b5f82611a7d565b15611b3c5750508454835460408051611b339450926001600160a01b031690611b0490846120ba565b601f83527f556e61626c6520746f2072657061792070726576696f7573206269646465720060208401526126c6565b5f808080611a65565b611b4592612655565b611b33565b60405162461bcd60e51b815260206004820152601860248201527f42696420696e6372656d656e7420697320746f6f206c6f7700000000000000006044820152606490fd5b634e487b7160e01b8a52601160045260248afd5b60405162461bcd60e51b815260206004820152601f60248201527f426964206d757374206265206174206c656173742062617365207072696365006044820152606490fd5b349550611a28565b60405162461bcd60e51b8152602060048201526011602482015270105d58dd1a5bdb881a185cc8195b991959607a1b6044820152606490fd5b50346101c35760203660031901126101c357604061018091600435815260086020522080549060ff60018060a01b0360018301541691600281015460038201546004830154600584015460068501549160018060a01b036007870154169360018060a01b0360088801541695600a6009890154980154996040519b8c5260208c015260408b015260608a0152608089015260a088015260c087015260e086015261010085015260018060a01b03811661012085015260a01c161515610140830152610160820152f35b503461094a57602036600319011261094a57600435611d14600454821061202d565b5f81815260076020526040902060058101546001600160a01b03163303611dd55760018060a01b0360068201541660048201546002830154823b1561094a57611d78925f9283604051809681958294637921219560e11b84523330600486016120dc565b03925af18015611dca57611db5575b506003839101557f61b9399f2f0f32ca39ce8d7be32caed5ec22fe07a6daba3a467ed479ec6065828280a280f35b600393505f611dc3916120ba565b5f92611d87565b6040513d5f823e3d90fd5b60405162461bcd60e51b815260206004820152600f60248201526e2737ba103a37b5b2b71037bbb732b960891b6044820152606490fd5b3461094a57604036600319011261094a57611e25611f59565b336001600160a01b03821603611e4357611e41906004356125b5565b005b63334bd91960e11b5f5260045ffd5b3461094a57604036600319011261094a57611e41600435611e71611f59565b90611e8a610a71825f525f602052600160405f20015490565b61252d565b3461094a575f36600319011261094a576020604051620f42408152f35b3461094a575f36600319011261094a576002546040516001600160a01b039091168152602090f35b3461094a57602036600319011261094a576020611efe6004355f525f602052600160405f20015490565b604051908152f35b3461094a57602036600319011261094a576004359063ffffffff60e01b821680920361094a57602091637965db0b60e01b8114908115611f48575b5015158152f35b6301ffc9a760e01b14905083611f41565b602435906001600160a01b038216820361094a57565b604435906001600160a01b038216820361094a57565b600435906001600160a01b038216820361094a57565b604090600319011261094a576004359060243590565b805180835260209291819084018484015e5f828201840152601f01601f1916010190565b9080602083519182815201916020808360051b8301019401925f915b83831061200057505050505090565b909192939460208061201e600193601f198682030187528951611fb1565b97019301930191939290611ff1565b1561203457565b60405162461bcd60e51b815260206004820152601060248201526f125b9d985b1a59081bdc99195c881a5960821b6044820152606490fd5b610100810190811067ffffffffffffffff82111761208957604052565b634e487b7160e01b5f52604160045260245ffd5b610180810190811067ffffffffffffffff82111761208957604052565b90601f8019910116810190811067ffffffffffffffff82111761208957604052565b6001600160a01b039182168152911660208201526040810191909152606081019190915260a0608082018190525f9082015260c00190565b1561211b57565b60405162461bcd60e51b815260206004820152601760248201527f4f72646572206973206e6f7420616e2061756374696f6e0000000000000000006044820152606490fd5b67ffffffffffffffff811161208957601f01601f191660200190565b1561218357565b60405162461bcd60e51b815260206004820152600b60248201526a125b9d985b1a5908195b9960aa1b6044820152606490fd5b156121bd57565b60405162461bcd60e51b815260206004820152601e60248201527f5374617274206d75737420626520736d616c6c6572207468616e20656e6400006044820152606490fd5b9190820391821161220f57565b634e487b7160e01b5f52601160045260245ffd5b67ffffffffffffffff81116120895760051b60200190565b9061224582612223565b61225260405191826120ba565b8281528092612263601f1991612223565b01905f5b82811061227357505050565b806060602080938501015201612267565b80518210156122985760209160051b010190565b634e487b7160e01b5f52603260045260245ffd5b60208183031261094a5780519067ffffffffffffffff821161094a570181601f8201121561094a578051906122e082612160565b926122ee60405194856120ba565b8284526020838301011161094a57815f9260208093018386015e8301015290565b5f19811461220f5760010190565b1561232457565b60405162461bcd60e51b815260206004820152601d60248201527f416d6f756e74206d7573742062652067726561746572207468616e20300000006044820152606490fd5b9081602091031261094a5751801515810361094a5790565b1561238857565b60405162461bcd60e51b815260206004820152601260248201527124b73b30b634b21031b7b63632b1ba34b7b760711b6044820152606490fd5b8181029291811591840414171561220f57565b9081602091031261094a57516001600160a01b038116810361094a5790565b604051906124036040836120ba565b601c82527f556e61626c6520746f20706179206665657320636f6c6c6563746f72000000006020830152565b6040519061243e6060836120ba565b60218252607360f81b6040837f556e61626c6520746f20706179207265636f726420636f6d70616e792066656560208201520152565b604051906124836040836120ba565b60148252732ab730b13632903a37903830bc9039b2b63632b960611b6020830152565b335f9081527fad3228b676f7d3cd4284a5443f17f1962b36e491b30a40b2405849e597ba5fb5602052604090205460ff16156124de57565b63e2517d3f60e01b5f52336004525f60245260445ffd5b5f8181526020818152604080832033845290915290205460ff16156125175750565b63e2517d3f60e01b5f523360045260245260445ffd5b5f818152602081815260408083206001600160a01b038616845290915290205460ff166125af575f818152602081815260408083206001600160a01b0395909516808452949091528120805460ff19166001179055339291907f2f8788117e7eff1d82e926ec794901d17c78024a50270940304540a733656f0d9080a4600190565b50505f90565b5f818152602081815260408083206001600160a01b038616845290915290205460ff16156125af575f818152602081815260408083206001600160a01b0395909516808452949091528120805460ff19169055339291907ff6391f5c32d9c69d2a47ea670b442974b53935d1edc7fd64eb21e047a839171b9080a4600190565b600260015414612646576002600155565b633ee5aeb560e01b5f5260045ffd5b60405163a9059cbb60e01b60208201526001600160a01b039092166024830152604480830193909352918152612695916126906064836120ba565b61274b565b565b3d156126c1573d906126a882612160565b916126b660405193846120ba565b82523d5f602084013e565b606090565b5f80809381935af16126d6612697565b50156126df5750565b60405162461bcd60e51b815260206004820152908190612703906024830190611fb1565b0390fd5b6040516323b872dd60e01b60208201526001600160a01b039283166024820152929091166044830152606480830193909352918152612695916126906084836120ba565b5f806127739260018060a01b03169360208151910182865af161276c612697565b90836127b6565b805190811515918261279b575b50506127895750565b635274afe760e01b5f5260045260245ffd5b6127ae9250602080918301019101612369565b155f80612780565b906127da57508051156127cb57805190602001fd5b630a12f52160e11b5f5260045ffd5b8151158061280b575b6127eb575090565b639996b31560e01b5f9081526001600160a01b0391909116600452602490fd5b50803b156127e356fe965e81d8677f6abdbca7b96fb8e7c1447d6cc133a6e43194241f12fefb67ee29a26469706673582212205da632556a8d56655a2d048bca0ddc2395c224d1b98fd24b0f805426db7eb51464736f6c634300081a0033ad3228b676f7d3cd4284a5443f17f1962b36e491b30a40b2405849e597ba5fb5000000000000000000000000bcf86d9859291f3a493c36d742428e8097cc0d1a000000000000000000000000492575382bd9fb683e76e793c7e40ea1df4b4ac0000000000000000000000000000000000000000000000000000000000000c350",
        "nonce": "0xa7",
        "chainId": "0x13882"
      },
      "additionalContracts": [],
      "isFixedGasLimit": false
    },
    {
      "hash": "0x339a12e97b4bb1aa776cfe99719b8460b7b0db99209e912d805897f2a4b6b762",
      "transactionType": "CALL",
      "contractName": "NFTFactory",
      "contractAddress": "0xbcf86d9859291f3a493c36d742428e8097cc0d1a",
      "function": "grantRole(bytes32,address)",
      "arguments": [
        "0x0000000000000000000000000000000000000000000000000000000000000000",
        "0xb7f8e58E3a892687700a37248c2482Ff846e16d8"
      ],
      "transaction": {
        "from": "0x756bfb8a31b2a21823152d96c88c6b8ae4ab1e99",
        "to": "0xbcf86d9859291f3a493c36d742428e8097cc0d1a",
        "gas": "0x1124a",
        "value": "0x0",
        "input": "0x2f2ff15d0000000000000000000000000000000000000000000000000000000000000000000000000000000000000000b7f8e58e3a892687700a37248c2482ff846e16d8",
        "nonce": "0xa8",
        "chainId": "0x13882"
      },
      "additionalContracts": [],
      "isFixedGasLimit": false
    },
    {
      "hash": "0x1b102f82582956a8c3be4d8ee59c8da16f2caa10a7a515ccd8643cd5789074af",
      "transactionType": "CALL",
      "contractName": "NFTFactory",
      "contractAddress": "0xbcf86d9859291f3a493c36d742428e8097cc0d1a",
      "function": "grantRole(bytes32,address)",
      "arguments": [
        "0x0000000000000000000000000000000000000000000000000000000000000000",
        "0x56C3E59117f37cf7203a0c6313c46003500b9317"
      ],
      "transaction": {
        "from": "0x756bfb8a31b2a21823152d96c88c6b8ae4ab1e99",
        "to": "0xbcf86d9859291f3a493c36d742428e8097cc0d1a",
        "gas": "0x1124a",
        "value": "0x0",
        "input": "0x2f2ff15d000000000000000000000000000000000000000000000000000000000000000000000000000000000000000056c3e59117f37cf7203a0c6313c46003500b9317",
        "nonce": "0xa9",
        "chainId": "0x13882"
      },
      "additionalContracts": [],
      "isFixedGasLimit": false
    },
    {
      "hash": "0x5a557f535b521d3ae60dd3b756fed9b127e1965026117876ac073863fee16407",
      "transactionType": "CALL",
      "contractName": "Marketplace",
      "contractAddress": "0x69f2b0aaed1adf60d6f3c69ff3c35d5564754b61",
      "function": "grantRole(bytes32,address)",
      "arguments": [
        "0x0000000000000000000000000000000000000000000000000000000000000000",
        "0xb7f8e58E3a892687700a37248c2482Ff846e16d8"
      ],
      "transaction": {
        "from": "0x756bfb8a31b2a21823152d96c88c6b8ae4ab1e99",
        "to": "0x69f2b0aaed1adf60d6f3c69ff3c35d5564754b61",
        "gas": "0x11232",
        "value": "0x0",
        "input": "0x2f2ff15d0000000000000000000000000000000000000000000000000000000000000000000000000000000000000000b7f8e58e3a892687700a37248c2482ff846e16d8",
        "nonce": "0xaa",
        "chainId": "0x13882"
      },
      "additionalContracts": [],
      "isFixedGasLimit": false
    },
    {
      "hash": "0x756db02b7fa4e5d3672d8a2a6eaabf51a0d36f2e708d481dc2495efd4c2cc314",
      "transactionType": "CALL",
      "contractName": "Marketplace",
      "contractAddress": "0x69f2b0aaed1adf60d6f3c69ff3c35d5564754b61",
      "function": "grantRole(bytes32,address)",
      "arguments": [
        "0x0000000000000000000000000000000000000000000000000000000000000000",
        "0x56C3E59117f37cf7203a0c6313c46003500b9317"
      ],
      "transaction": {
        "from": "0x756bfb8a31b2a21823152d96c88c6b8ae4ab1e99",
        "to": "0x69f2b0aaed1adf60d6f3c69ff3c35d5564754b61",
        "gas": "0x11232",
        "value": "0x0",
        "input": "0x2f2ff15d000000000000000000000000000000000000000000000000000000000000000000000000000000000000000056c3e59117f37cf7203a0c6313c46003500b9317",
        "nonce": "0xab",
        "chainId": "0x13882"
      },
      "additionalContracts": [],
      "isFixedGasLimit": false
    },
    {
      "hash": "0xfc476ddc14235c6b16fb0bbab9f531c46137085e1da960cae0eed9a47ae0b004",
      "transactionType": "CALL",
      "contractName": "NFTFactory",
      "contractAddress": "0xbcf86d9859291f3a493c36d742428e8097cc0d1a",
      "function": "deployNFT(string,address,address,uint256)",
      "arguments": [
        "\"Test\"",
        "0x756bFB8A31b2a21823152D96c88C6B8ae4aB1E99",
        "0x492575382bd9fB683E76E793C7e40Ea1Df4B4ac0",
        "50000"
      ],
      "transaction": {
        "from": "0x756bfb8a31b2a21823152d96c88c6b8ae4ab1e99",
        "to": "0xbcf86d9859291f3a493c36d742428e8097cc0d1a",
        "gas": "0x2b3fa2",
        "value": "0x0",
        "input": "0x41f9faec0000000000000000000000000000000000000000000000000000000000000080000000000000000000000000756bfb8a31b2a21823152d96c88c6b8ae4ab1e99000000000000000000000000492575382bd9fb683e76e793c7e40ea1df4b4ac0000000000000000000000000000000000000000000000000000000000000c35000000000000000000000000000000000000000000000000000000000000000045465737400000000000000000000000000000000000000000000000000000000",
        "nonce": "0xac",
        "chainId": "0x13882"
      },
      "additionalContracts": [
        {
          "transactionType": "CREATE",
          "address": "0xf7bdf34721cf171a7eda086cf53129f28ddc45ee",
          "initCode": "0x60806040523461030c5761246c8038038061001981610310565b92833981019060808183031261030c5780516001600160401b03811161030c57810182601f8201121561030c578051906001600160401b0382116102c45761006a601f8301601f1916602001610310565b938285526020838301011161030c57815f9260208093018387015e8401015261009560208201610335565b60606100a360408401610335565b920151916020915f6100b484610310565b52600254600181811c91168015610302575b848210146102a657601f81116102d8575b506100ef905f6002556100e932610349565b506103bf565b505f8051602061242c8339815191525f52600582525f8051602061242c833981519152600160405f200154815f526005845281600160405f200155817fbd79b86ffe0ab8e8776151514217cd7cacd52c909f66475c3af44e129f0b00ff5f80a4600d80546001600160a01b0319166001600160a01b03929092169190911790558251906001600160401b0382116102c457600c54600181811c911680156102ba575b828210146102a657601f8111610262575b5080601f83116001146101fe57508192935f926101f3575b50508160011b915f199060031b1c191617600c555b600b55600e80546001600160a01b03191633179055604051611fa690816104668239f35b015190505f806101ba565b90601f19831694600c5f52825f20925f905b87821061024a575050836001959610610232575b505050811b01600c556101cf565b01515f1960f88460031b161c191690555f8080610224565b80600185968294968601518155019501930190610210565b600c5f52815f20601f840160051c81019183851061029c575b601f0160051c01905b81811061029157506101a2565b5f8155600101610284565b909150819061027b565b634e487b7160e01b5f52602260045260245ffd5b90607f1690610191565b634e487b7160e01b5f52604160045260245ffd5b60025f52601f845f20910160051c8101905b8181106102f757506100d7565b5f81556001016102ea565b90607f16906100c6565b5f80fd5b6040519190601f01601f191682016001600160401b038111838210176102c457604052565b51906001600160a01b038216820361030c57565b6001600160a01b0381165f9081525f8051602061244c833981519152602052604090205460ff166103ba576001600160a01b03165f8181525f8051602061244c83398151915260205260408120805460ff191660011790553391905f8051602061240c8339815191528180a4600190565b505f90565b6001600160a01b0381165f9081527f79ed740027bf2a2d788cad2f071271c4cc92108c1a879ef33ec044da1905c17f602052604090205460ff166103ba576001600160a01b03165f8181527f79ed740027bf2a2d788cad2f071271c4cc92108c1a879ef33ec044da1905c17f60205260408120805460ff191660011790553391905f8051602061242c833981519152905f8051602061240c8339815191529080a460019056fe60806040526004361015610011575f80fd5b5f3560e01c8062fdd58e1461020357806301ffc9a7146101fe578063047a35a4146101f9578063061f8aa6146101f457806306fdde03146101ef5780630d1e691a146101ea5780630e89341c146101e55780630fe18841146101e057806318160ddd146101db578063248a9ca3146101d65780632d6c8ed5146101d15780632eb2c2d6146101cc5780632f2ff15d146101c757806336568abe146101c257806344663cc2146101bd5780634e1273f4146101b85780634f558e79146101b357806350a8ae61146101ae578063535ca46c146101a957806361d027b3146101a45780636d7d4cb21461019f578063846a98981461019a57806391d1485414610195578063a217fddf14610190578063a22cb4651461018b578063bd85b03914610186578063c45a015514610181578063d547741f1461017c578063e985e9c514610177578063ea5df059146101725763f242432a1461016d575f80fd5b611190565b61113d565b6110ed565b611050565b611028565b610ffe565b610f4c565b610f32565b610ee3565b610ec6565b610ea9565b610e81565b610e1a565b610d6d565b610d39565b610c7a565b610b6a565b610a73565b6109ad565b610923565b610888565b610855565b610838565b610751565b6106d1565b61068e565b6105b4565b61040a565b610339565b6102a6565b61024c565b600435906001600160a01b038216820361021e57565b5f80fd5b602435906001600160a01b038216820361021e57565b35906001600160a01b038216820361021e57565b3461021e57604036600319011261021e57602061028b61026a610208565b6024355f525f835260405f209060018060a01b03165f5260205260405f2090565b54604051908152f35b6001600160e01b031981160361021e57565b3461021e57602036600319011261021e576004356102c381610294565b63ffffffff60e01b16637965db0b60e01b81149081156102ec575b506040519015158152602090f35b636cdb3d1360e11b81149150811561031e575b811561030d575b505f6102de565b6301ffc9a760e01b1490505f610306565b6303a24d0760e21b811491506102ff565b5f91031261021e57565b3461021e575f36600319011261021e576020600b54604051908152f35b634e487b7160e01b5f52604160045260245ffd5b60a081019081106001600160401b0382111761038557604052565b610356565b90601f801991011681019081106001600160401b0382111761038557604052565b6001600160401b03811161038557601f01601f191660200190565b81601f8201121561021e576020813591016103e0826103ab565b926103ee604051948561038a565b8284528282011161021e57815f92602092838601378301015290565b3461021e57608036600319011261021e576004356001600160401b03811161021e5761043a9036906004016103c6565b6024356001600160401b03811161021e576104599036906004016103c6565b906044356001600160401b03811161021e576104799036906004016103c6565b606435926001600160401b03841161021e5761049c6104a29436906004016103c6565b92611296565b005b90600182811c921680156104d2575b60208310146104be57565b634e487b7160e01b5f52602260045260245ffd5b91607f16916104b3565b9060405191825f8254926104ef846104a4565b808452936001811690811561055a5750600114610516575b506105149250038361038a565b565b90505f9291925260205f20905f915b81831061053e575050906020610514928201015f610507565b6020919350806001915483858901015201910190918492610525565b90506020925061051494915060ff191682840152151560051b8201015f610507565b805180835260209291819084018484015e5f828201840152601f01601f1916010190565b9060206105b192818152019061057c565b90565b3461021e575f36600319011261021e576040515f600c546105d4816104a4565b808452906001811690811561066a575060011461060c575b610608836105fc8185038261038a565b604051918291826105a0565b0390f35b600c5f9081527fdf6966c971051c3d54ec59162606531493a51404a002842f56009d7e5cf4a8c7939250905b808210610650575090915081016020016105fc6105ec565b919260018160209254838588010152019101909291610638565b60ff191660208086019190915291151560051b840190910191506105fc90506105ec565b3461021e57602036600319011261021e576106a7610208565b6106af611744565b600d80546001600160a01b0319166001600160a01b0392909216919091179055005b3461021e57602036600319011261021e576004356106fa815f52600360205260405f2054151590565b15610718575f5260076020526106086105fc600260405f20016104dc565b60405162461bcd60e51b81526020600482015260116024820152702737b732bc34b9ba32b73a103a37b5b2b760791b6044820152606490fd5b3461021e57606036600319011261021e576024356004356044356001600160401b03811161021e576107879036906004016103c6565b91610790611744565b805f52600660205260ff600460405f20015416156107fb576107e89282916107cf6107c5600a545f52600760205260405f2090565b92600284016113e0565b600182015555600a54906107e16114d2565b91336117da565b6104a26107f6600a546114bf565b600a55565b60405162461bcd60e51b815260206004820152601560248201527414da5b99d95c88191bd95cc81b9bdd08195e1a5cdd605a1b6044820152606490fd5b3461021e575f36600319011261021e576020600454604051908152f35b3461021e57602036600319011261021e5760206108806004355f526005602052600160405f20015490565b604051908152f35b3461021e575f36600319011261021e5760206040515f80516020611f518339815191528152f35b6001600160401b0381116103855760051b60200190565b9080601f8301121561021e5781356108dd816108af565b926108eb604051948561038a565b81845260208085019260051b82010192831161021e57602001905b8282106109135750505090565b8135815260209182019101610906565b3461021e5760a036600319011261021e5761093c610208565b610944610222565b906044356001600160401b03811161021e576109649036906004016108c6565b6064356001600160401b03811161021e576109839036906004016108c6565b90608435936001600160401b03851161021e576109a76104a29536906004016103c6565b936114e6565b3461021e57604036600319011261021e576004355f80516020611f518339815191526109d7610222565b916109f66109f1825f526005602052600160405f20015490565b6117a0565b610a0083826118b9565b5014610a0857005b600e546001600160a01b0316803b1561021e5760405163be2d146f60e01b81526001600160a01b0390921660048301523060248301525f908290818381604481015b03925af18015610a6e57610a5a57005b80610a685f6104a29361038a565b8061032f565b611542565b3461021e57604036600319011261021e57600435610a8f610222565b336001600160a01b03821603610aa8576104a291611949565b63334bd91960e11b5f5260045ffd5b602081016020825282518091526040820191602060408360051b8301019401925f915b838310610ae957505050505090565b9091929394602080600192603f19858203018652885190608080610b53610b41610b2f610b1f875160a0885260a088019061057c565b888801518782038a89015261057c565b6040870151868203604088015261057c565b6060860151858203606087015261057c565b930151151591015297019301930191939290610ada565b3461021e57604036600319011261021e576004356024356009548111610c0357610b968282101561154d565b610ba8610ba3838361158e565b61159b565b91805b828110610bc057604051806106088682610ab7565b80610bfc610bd86001935f52600660205260405f2090565b610beb610be5868561158e565b91611633565b610bf5828961160b565b528661160b565b5001610bab565b60405162461bcd60e51b815260206004820152600b60248201526a125b9d985b1a5908195b9960aa1b6044820152606490fd5b90602080835192838152019201905f5b818110610c535750505090565b8251845260209384019390920191600101610c46565b9060206105b1928181520190610c36565b3461021e57604036600319011261021e576004356001600160401b03811161021e573660238201121561021e57806004013590610cb6826108af565b91610cc4604051938461038a565b8083526024602084019160051b8301019136831161021e57602401905b828210610d2157836024356001600160401b03811161021e5761060891610d0f610d159236906004016108c6565b90611690565b60405191829182610c69565b60208091610d2e84610238565b815201910190610ce1565b3461021e57602036600319011261021e576020610d636004355f52600360205260405f2054151590565b6040519015158152f35b3461021e57602036600319011261021e576004355f526006602052610de460405f20610d98816104dc565b90610e0e610da8600183016104dc565b91610e00610db8600283016104dc565b610df260ff6004610dcb600387016104dc565b950154169560405198899860a08a5260a08a019061057c565b9088820360208a015261057c565b90868203604088015261057c565b90848203606086015261057c565b90151560808301520390f35b3461021e57602036600319011261021e57335f9081527f05b8ccbb9d4d8fb16ea74ce3c29a41f1b461fbdaff4714a0d9a8eb05499746bc60205260409020546004359060ff1615610e6a57600b55005b63e2517d3f60e01b5f52336004525f60245260445ffd5b3461021e575f36600319011261021e57600d546040516001600160a01b039091168152602090f35b3461021e575f36600319011261021e576020600a54604051908152f35b3461021e575f36600319011261021e576020600954604051908152f35b3461021e57604036600319011261021e57602060ff610f26600435610f06610222565b905f526005845260405f209060018060a01b03165f5260205260405f2090565b54166040519015158152f35b3461021e575f36600319011261021e5760206040515f8152f35b3461021e57604036600319011261021e57610f65610208565b602435908115159081830361021e576001600160a01b038116928315610fec57610fad610fbe92335f52600160205260405f209060018060a01b03165f5260205260405f2090565b9060ff801983541691151516179055565b6040519081527f17307eab39ab6107e8899845ad3d59bd9653f200f220920489ca2b5937696c3160203392a3005b62ced3e160e81b5f525f60045260245ffd5b3461021e57602036600319011261021e576004355f526003602052602060405f2054604051908152f35b3461021e575f36600319011261021e57600e546040516001600160a01b039091168152602090f35b3461021e57604036600319011261021e576004355f80516020611f5183398151915261107a610222565b916110946109f1825f526005602052600160405f20015490565b61109e8382611949565b50146110a657005b600e546001600160a01b0316803b1561021e5760405163be2d146f60e01b81526001600160a01b0390921660048301525f6024830181905290829081838160448101610a4a565b3461021e57604036600319011261021e57602060ff610f2661110d610208565b611115610222565b6001600160a01b039182165f9081526001865260408082209290931681526020919091522090565b3461021e57602036600319011261021e576004355f52600760205260405f2080546106086111726002600185015494016104dc565b6040519384938452602084015260606040840152606083019061057c565b3461021e5760a036600319011261021e576111a9610208565b6111b1610222565b60443590606435926084356001600160401b03811161021e576111d89036906004016103c6565b926001600160a01b0382163381141580611273575b61125d576001600160a01b0384161561124a5715611238576104a29461123060405192600184526020840152604083019160018352606084015260808301604052565b9290916119d1565b626a0d4560e21b5f525f60045260245ffd5b632bfa23e760e11b5f525f60045260245ffd5b63711bec9160e11b5f523360045260245260445ffd5b505f81815260016020908152604080832033845290915290205460ff16156111ed565b90916112a0611744565b60ff6112ab83611372565b541661133557600461131593611302611322966112f9611310956112f06112dc6009545f52600660205260405f2090565b956112e78a886113e0565b600187016113e0565b600285016113e0565b600383016113e0565b01805460ff19166001179055565b611372565b805460ff19166001179055565b6105146113306009546114bf565b600955565b60405162461bcd60e51b815260206004820152601560248201527453696e67657220616c72656164792065786973747360581b6044820152606490fd5b60208091604051928184925191829101835e8101600881520301902090565b601f821161139e57505050565b5f5260205f20906020601f840160051c830193106113d6575b601f0160051c01905b8181106113cb575050565b5f81556001016113c0565b90915081906113b7565b91909182516001600160401b038111610385576114078161140184546104a4565b84611391565b6020601f82116001146114465781906114379394955f9261143b575b50508160011b915f199060031b1c19161790565b9055565b015190505f80611423565b601f19821690611459845f5260205f2090565b915f5b8181106114935750958360019596971061147b575b505050811b019055565b01515f1960f88460031b161c191690555f8080611471565b9192602060018192868b01518155019401920161145c565b634e487b7160e01b5f52601160045260245ffd5b5f1981146114cd5760010190565b6114ab565b604051906114e160208361038a565b5f8252565b939291906001600160a01b038516338114158061151f575b61125d576001600160a01b0382161561124a571561123857610514946119d1565b505f81815260016020908152604080832033845290915290205460ff16156114fe565b6040513d5f823e3d90fd5b1561155457565b60405162461bcd60e51b8152602060048201526012602482015271496e76616c696420706172616d657465727360701b6044820152606490fd5b919082039182116114cd57565b906115a5826108af565b6115b2604051918261038a565b82815280926115c3601f19916108af565b01905f5b8281106115d357505050565b6020906040516115e28161036a565b60608152606083820152606060408201526060808201525f6080820152828285010152016115c7565b805182101561161f5760209160051b010190565b634e487b7160e01b5f52603260045260245ffd5b906040516116408161036a565b608060ff60048395611651816104dc565b855261165f600182016104dc565b6020860152611670600282016104dc565b6040860152611681600382016104dc565b60608601520154161515910152565b9190918051835180820361172f5750508051906116ac826108af565b916116ba604051938461038a565b8083526116c9601f19916108af565b013660208401375f5b8151811015611728578061171760019260051b60208082870101519189010151905f918252602082815260408084206001600160a01b03909316845291905290205490565b611721828661160b565b52016116d2565b5090925050565b635b05999160e01b5f5260045260245260445ffd5b335f9081527f79ed740027bf2a2d788cad2f071271c4cc92108c1a879ef33ec044da1905c17f602052604090205460ff161561177c57565b63e2517d3f60e01b5f52336004525f80516020611f5183398151915260245260445ffd5b5f81815260056020908152604080832033845290915290205460ff16156117c45750565b63e2517d3f60e01b5f523360045260245260445ffd5b93916001600160a01b0385161561124a5761181260405192600184526020840152604083019160018352606084015260808301604052565b90916118208284875f611d81565b5f94855b84518710156118755761186d60019161183d898761160b565b519061185b61184c8b8a61160b565b515f52600360205260405f2090565b611866838254611aeb565b9055611aeb565b960195611824565b61188f91959492965061188a90600454611aeb565b600455565b80516001036118ae579060208061051495930151910151915f33611cbe565b610514935f33611b8f565b5f8181526005602090815260408083206001600160a01b038616845290915290205460ff16611943575f8181526005602090815260408083206001600160a01b03861684529091529020805460ff1916600117905533916001600160a01b0316907f2f8788117e7eff1d82e926ec794901d17c78024a50270940304540a733656f0d5f80a4600190565b50505f90565b5f8181526005602090815260408083206001600160a01b038616845290915290205460ff1615611943575f8181526005602090815260408083206001600160a01b03861684529091529020805460ff1916905533916001600160a01b0316907ff6391f5c32d9c69d2a47ea670b442974b53935d1edc7fd64eb21e047a839171b5f80a4600190565b919392906119e182868386611d81565b6001600160a01b03831615611a9a575b6001600160a01b0381161580611a46575b15611a0f575b5050505050565b8451600103611a3557602080611a2b9601519201519233611cbe565b5f80808080611a08565b611a4194919233611b8f565b611a2b565b94935f939091845b8651861015611a8257600190611a64878761160b565b5190611a7361184c898b61160b565b82815403905501950194611a4e565b611a959193969792955060045403600455565b611a02565b93925f92835b8551851015611ad057611ac8600191611ab9878761160b565b519061185b61184c898b61160b565b940193611aa0565b611ae691945061188a9096929596600454611aeb565b6119f1565b919082018092116114cd57565b9081602091031261021e57516105b181610294565b6001600160a01b0391821681529116602082015260a0604082018190526105b19491939192611b529291611b449190860190610c36565b908482036060860152610c36565b91608081840391015261057c565b3d15611b8a573d90611b71826103ab565b91611b7f604051938461038a565b82523d5f602084013e565b606090565b9091949293853b611ba3575b505050505050565b602093611bc591604051968795869563bc197c8160e01b875260048701611b0d565b03815f6001600160a01b0387165af15f9181611c54575b50611c165750611bea611b60565b8051919082611c0f57632bfa23e760e11b5f526001600160a01b03821660045260245ffd5b9050602001fd5b6001600160e01b0319166343e6837f60e01b01611c3957505f8080808080611b9b565b632bfa23e760e11b5f526001600160a01b031660045260245ffd5b611c7791925060203d602011611c7e575b611c6f818361038a565b810190611af8565b905f611bdc565b503d611c65565b6001600160a01b039182168152911660208201526040810191909152606081019190915260a0608082018190526105b19291019061057c565b9091949293853b611cd157505050505050565b602093611cf391604051968795869563f23a6e6160e01b875260048701611c85565b03815f6001600160a01b0387165af15f9181611d3b575b50611d185750611bea611b60565b6001600160e01b031916630dc5919f60e01b01611c3957505f8080808080611b9b565b611d5591925060203d602011611c7e57611c6f818361038a565b905f611d0a565b9091611d736105b193604084526040840190610c36565b916020818403910152610c36565b9392918051835190818103611f3b5750505f5b8151811015611e95578060051b90602080838501015192860101518460018060a01b038916611e18575b6001936001600160a01b038216611dd9575b50505001611d94565b611e0e91611df1611e06925f525f60205260405f2090565b9060018060a01b03165f5260205260405f2090565b918254611aeb565b90555f8481611dd0565b509091611e3088611df1835f525f60205260405f2090565b54828110611e5e57829160019493879203611e568b611df1845f525f60205260405f2090565b559350611dbe565b6040516303dee4c560e01b81526001600160a01b038a16600482015260248101919091526044810183905260648101829052608490fd5b508051939493919291600103611ef8576020908101519181015160408051938452918301526001600160a01b03928316939092169133917fc3d58168c5ae7397731d063d5bbf3d657854427343f4c083240f7aacaa2d0f6291819081015b0390a4565b6040516001600160a01b03938416949093169233927f4a39dc06d4c0dbc64b70af90fd698a233a518aa5d07e595d983b8c0526c8f7fb928291611ef39183611d5c565b635b05999160e01b5f5260045260245260445ffdfe768dd85fed03ac9c2c0f14fe090b045c29124f162b5fa7d6dd8ca0009807d4dba264697066735822122023ca39a5160713ccd935bc9754a6c884baa93f9cc32505daf1d0136c0e03efd764736f6c634300081a00332f8788117e7eff1d82e926ec794901d17c78024a50270940304540a733656f0d768dd85fed03ac9c2c0f14fe090b045c29124f162b5fa7d6dd8ca0009807d4db05b8ccbb9d4d8fb16ea74ce3c29a41f1b461fbdaff4714a0d9a8eb05499746bc0000000000000000000000000000000000000000000000000000000000000080000000000000000000000000756bfb8a31b2a21823152d96c88c6b8ae4ab1e99000000000000000000000000492575382bd9fb683e76e793c7e40ea1df4b4ac0000000000000000000000000000000000000000000000000000000000000c35000000000000000000000000000000000000000000000000000000000000000045465737400000000000000000000000000000000000000000000000000000000"
        }
      ],
      "isFixedGasLimit": false
    },
    {
      "hash": "0x3d44c4da72fe9f4cea3d609c6d86739346160f4c3642e5ed2c1504c53cf7ec22",
      "transactionType": "CALL",
      "contractName": "NFT",
      "contractAddress": "0xf7bdf34721cf171a7eda086cf53129f28ddc45ee",
      "function": "createSinger(string,string,string,string)",
      "arguments": [
        "\"Artist\"",
        "\"Description\"",
        "\"Pop\"",
        "\"https://...\""
      ],
      "transaction": {
        "from": "0x756bfb8a31b2a21823152d96c88c6b8ae4ab1e99",
        "to": "0xf7bdf34721cf171a7eda086cf53129f28ddc45ee",
        "gas": "0x41cbb",
        "value": "0x0",
        "input": "0x061f8aa6000000000000000000000000000000000000000000000000000000000000008000000000000000000000000000000000000000000000000000000000000000c00000000000000000000000000000000000000000000000000000000000000100000000000000000000000000000000000000000000000000000000000000014000000000000000000000000000000000000000000000000000000000000000064172746973740000000000000000000000000000000000000000000000000000000000000000000000000000000000000000000000000000000000000000000b4465736372697074696f6e0000000000000000000000000000000000000000000000000000000000000000000000000000000000000000000000000000000003506f700000000000000000000000000000000000000000000000000000000000000000000000000000000000000000000000000000000000000000000000000b68747470733a2f2f2e2e2e000000000000000000000000000000000000000000",
        "nonce": "0xad",
        "chainId": "0x13882"
      },
      "additionalContracts": [],
      "isFixedGasLimit": false
    },
    {
      "hash": "0xc12963b51da3a76870a91a2bd12c44b2e3c7e8b1615b99ce21685cf6e4b07db5",
      "transactionType": "CALL",
      "contractName": "NFT",
      "contractAddress": "0xf7bdf34721cf171a7eda086cf53129f28ddc45ee",
      "function": "createAlbum(uint256,uint256,string)",
      "arguments": [
        "100",
        "0",
        "\"https://...\""
      ],
      "transaction": {
        "from": "0x756bfb8a31b2a21823152d96c88c6b8ae4ab1e99",
        "to": "0xf7bdf34721cf171a7eda086cf53129f28ddc45ee",
        "gas": "0x3b90e",
        "value": "0x0",
        "input": "0x0fe18841000000000000000000000000000000000000000000000000000000000000006400000000000000000000000000000000000000000000000000000000000000000000000000000000000000000000000000000000000000000000000000000060000000000000000000000000000000000000000000000000000000000000000b68747470733a2f2f2e2e2e000000000000000000000000000000000000000000",
        "nonce": "0xae",
        "chainId": "0x13882"
      },
      "additionalContracts": [],
      "isFixedGasLimit": false
    },
    {
      "hash": "0x34796613c739857cbc427c272272c361f70cc659e428969421c6ed0c016b9103",
      "transactionType": "CALL",
      "contractName": "NFT",
      "contractAddress": "0xf7bdf34721cf171a7eda086cf53129f28ddc45ee",
      "function": "setApprovalForAll(address,bool)",
      "arguments": [
        "0x69f2b0aaEd1adF60D6f3c69FF3C35D5564754b61",
        "true"
      ],
      "transaction": {
        "from": "0x756bfb8a31b2a21823152d96c88c6b8ae4ab1e99",
        "to": "0xf7bdf34721cf171a7eda086cf53129f28ddc45ee",
        "gas": "0x10996",
        "value": "0x0",
        "input": "0xa22cb46500000000000000000000000069f2b0aaed1adf60d6f3c69ff3c35d5564754b610000000000000000000000000000000000000000000000000000000000000001",
        "nonce": "0xaf",
        "chainId": "0x13882"
      },
      "additionalContracts": [],
      "isFixedGasLimit": false
    },
    {
      "hash": "0xb37cdf4cbc3d5bac852ac27ce4b5dd13dfc6afc679e4533fe1885049e0940dc7",
      "transactionType": "CALL",
      "contractName": "Marketplace",
      "contractAddress": "0x69f2b0aaed1adf60d6f3c69ff3c35d5564754b61",
      "function": "createOrder(address,uint256,uint256,uint256,address)",
      "arguments": [
        "0xf7bdF34721cF171a7EDa086cf53129f28ddc45eE",
        "0",
        "50",
        "100000000000000",
        "0x0000000000000000000000000000000000000000"
      ],
      "transaction": {
        "from": "0x756bfb8a31b2a21823152d96c88c6b8ae4ab1e99",
        "to": "0x69f2b0aaed1adf60d6f3c69ff3c35d5564754b61",
        "gas": "0x4c064",
        "value": "0x0",
        "input": "0xdbe11bb3000000000000000000000000f7bdf34721cf171a7eda086cf53129f28ddc45ee0000000000000000000000000000000000000000000000000000000000000000000000000000000000000000000000000000000000000000000000000000003200000000000000000000000000000000000000000000000000005af3107a40000000000000000000000000000000000000000000000000000000000000000000",
        "nonce": "0xb0",
        "chainId": "0x13882"
      },
      "additionalContracts": [],
      "isFixedGasLimit": false
    },
    {
      "hash": "0x05b135d8d81b38beaa0088949127fff314c79aaee45edbdc5d7b2a2582360ec6",
      "transactionType": "CALL",
      "contractName": "Marketplace",
      "contractAddress": "0x69f2b0aaed1adf60d6f3c69ff3c35d5564754b61",
      "function": "buy(uint256,uint256)",
      "arguments": [
        "0",
        "5"
      ],
      "transaction": {
        "from": "0x492575382bd9fb683e76e793c7e40ea1df4b4ac0",
        "to": "0x69f2b0aaed1adf60d6f3c69ff3c35d5564754b61",
        "gas": "0x32463",
        "value": "0x1c6bf52634000",
        "input": "0xd6febde800000000000000000000000000000000000000000000000000000000000000000000000000000000000000000000000000000000000000000000000000000005",
        "nonce": "0x3",
        "chainId": "0x13882"
      },
      "additionalContracts": [],
      "isFixedGasLimit": false
    }
  ],
  "receipts": [
    {
      "status": "0x1",
      "cumulativeGasUsed": "0x2b5594",
      "logs": [
        {
          "address": "0xbcf86d9859291f3a493c36d742428e8097cc0d1a",
          "topics": [
            "0x2f8788117e7eff1d82e926ec794901d17c78024a50270940304540a733656f0d",
            "0x0000000000000000000000000000000000000000000000000000000000000000",
            "0x000000000000000000000000756bfb8a31b2a21823152d96c88c6b8ae4ab1e99",
            "0x000000000000000000000000756bfb8a31b2a21823152d96c88c6b8ae4ab1e99"
          ],
          "data": "0x",
          "blockHash": "0x301ff91c05e1e06c5b20c1f9ba0fe6bbbb5fd9756b7a1318d54ea05ffb923cb4",
          "blockNumber": "0xa60705",
          "transactionHash": "0x2335bdabcefd56207c5d8b9b355d37cb6d611c5359b27efe09859626bc963bd2",
          "transactionIndex": "0x0",
          "logIndex": "0x0",
          "removed": false
        },
        {
          "address": "0x0000000000000000000000000000000000001010",
          "topics": [
            "0x4dfe1bbbcf077ddc3e01291eea2d5c70c2b422b415d95645b9adcfd678cb1d63",
            "0x0000000000000000000000000000000000000000000000000000000000001010",
            "0x000000000000000000000000756bfb8a31b2a21823152d96c88c6b8ae4ab1e99",
            "0x000000000000000000000000915a2284d28bd93de7d6f31173b981204bb666e6"
          ],
          "data": "0x000000000000000000000000000000000000000000000000012ff29d19a1f36c00000000000000000000000000000000000000000000000067c7fbe09c9c57d800000000000000000000000000000000000000000000033ec8126554ad93f6de0000000000000000000000000000000000000000000000006698094382fa646c00000000000000000000000000000000000000000000033ec94257f1c735ea4a",
          "blockHash": "0x301ff91c05e1e06c5b20c1f9ba0fe6bbbb5fd9756b7a1318d54ea05ffb923cb4",
          "blockNumber": "0xa60705",
          "transactionHash": "0x2335bdabcefd56207c5d8b9b355d37cb6d611c5359b27efe09859626bc963bd2",
          "transactionIndex": "0x0",
          "logIndex": "0x1",
          "removed": false
        }
      ],
      "logsBloom": "0x00000004000000000010000000000000000000080000000000000000000000000000000000000001000000000000000000008000000000000001000000000000000000000000000000000000000000800000000000000000000100000000000000000000020000000000000000000800000000000000000080000000000000000000000000000000000000000000000000000000000000000000000000000000200000000000000000000000000000000000000000000100001000000000004000000000000000000001000000000000000002000000000100100000000020000000000000000000000000000800000000000000400000000000001000100000",
      "type": "0x2",
      "transactionHash": "0x2335bdabcefd56207c5d8b9b355d37cb6d611c5359b27efe09859626bc963bd2",
      "transactionIndex": "0x0",
      "blockHash": "0x301ff91c05e1e06c5b20c1f9ba0fe6bbbb5fd9756b7a1318d54ea05ffb923cb4",
      "blockNumber": "0xa60705",
      "gasUsed": "0x2b5594",
      "effectiveGasPrice": "0x70397054e",
      "from": "0x756bfb8a31b2a21823152d96c88c6b8ae4ab1e99",
      "to": null,
      "contractAddress": "0xbcf86d9859291f3a493c36d742428e8097cc0d1a"
    },
    {
      "status": "0x1",
      "cumulativeGasUsed": "0x24c5db",
      "logs": [
        {
          "address": "0x69f2b0aaed1adf60d6f3c69ff3c35d5564754b61",
          "topics": [
            "0x2f8788117e7eff1d82e926ec794901d17c78024a50270940304540a733656f0d",
            "0x0000000000000000000000000000000000000000000000000000000000000000",
            "0x000000000000000000000000756bfb8a31b2a21823152d96c88c6b8ae4ab1e99",
            "0x000000000000000000000000756bfb8a31b2a21823152d96c88c6b8ae4ab1e99"
          ],
          "data": "0x",
          "blockHash": "0x6d3947de08160de777f2d57a15f0abadd1db6b17780f6f1306af2c6d49a4316e",
          "blockNumber": "0xa60709",
          "transactionHash": "0x24e4dc92575781fc0b9bc66222490261fee2f18da5b8aa1cbc58f57a5ea30717",
          "transactionIndex": "0x0",
          "logIndex": "0x0",
          "removed": false
        },
        {
          "address": "0x0000000000000000000000000000000000001010",
          "topics": [
            "0x4dfe1bbbcf077ddc3e01291eea2d5c70c2b422b415d95645b9adcfd678cb1d63",
            "0x0000000000000000000000000000000000000000000000000000000000001010",
            "0x000000000000000000000000756bfb8a31b2a21823152d96c88c6b8ae4ab1e99",
            "0x000000000000000000000000915a2284d28bd93de7d6f31173b981204bb666e6"
          ],
          "data": "0x0000000000000000000000000000000000000000000000000101ed000616f7e500000000000000000000000000000000000000000000000066980943807060c000000000000000000000000000000000000000000000033eca0aa26a1abb0f4200000000000000000000000000000000000000000000000065961c437a5968db00000000000000000000000000000000000000000000033ecb0c8f6a20d20727",
          "blockHash": "0x6d3947de08160de777f2d57a15f0abadd1db6b17780f6f1306af2c6d49a4316e",
          "blockNumber": "0xa60709",
          "transactionHash": "0x24e4dc92575781fc0b9bc66222490261fee2f18da5b8aa1cbc58f57a5ea30717",
          "transactionIndex": "0x0",
          "logIndex": "0x1",
          "removed": false
        }
      ],
      "logsBloom": "0x00000004000000000010000000000000000000000000000000000000000000000000000000000000000000000000000000008000000000000001000000000000004000000000000000000000000000800000000000000000000100000000040000000000020000000000000000000800000000000000000080000000000000000000000000000000000000000000000000000000000000000000000000000000200000000000000000000000000000000000000000000100001000000000004000000000000000000001000000000000000002000000000100100000000020000000000000000000000000000800000000000000600000000000000000100000",
      "type": "0x2",
      "transactionHash": "0x24e4dc92575781fc0b9bc66222490261fee2f18da5b8aa1cbc58f57a5ea30717",
      "transactionIndex": "0x0",
      "blockHash": "0x6d3947de08160de777f2d57a15f0abadd1db6b17780f6f1306af2c6d49a4316e",
      "blockNumber": "0xa60709",
      "gasUsed": "0x24c5db",
      "effectiveGasPrice": "0x70397054e",
      "from": "0x756bfb8a31b2a21823152d96c88c6b8ae4ab1e99",
      "to": null,
      "contractAddress": "0x69f2b0aaed1adf60d6f3c69ff3c35d5564754b61"
    },
    {
      "status": "0x1",
      "cumulativeGasUsed": "0xc695",
      "logs": [
        {
          "address": "0xbcf86d9859291f3a493c36d742428e8097cc0d1a",
          "topics": [
            "0x2f8788117e7eff1d82e926ec794901d17c78024a50270940304540a733656f0d",
            "0x0000000000000000000000000000000000000000000000000000000000000000",
            "0x000000000000000000000000b7f8e58e3a892687700a37248c2482ff846e16d8",
            "0x000000000000000000000000756bfb8a31b2a21823152d96c88c6b8ae4ab1e99"
          ],
          "data": "0x",
          "blockHash": "0x29397b1504e7a1ad251f182717773cc06f52a69912746acde7f95eabeb1fadcd",
          "blockNumber": "0xa6070d",
          "transactionHash": "0x339a12e97b4bb1aa776cfe99719b8460b7b0db99209e912d805897f2a4b6b762",
          "transactionIndex": "0x0",
          "logIndex": "0x0",
          "removed": false
        },
        {
          "address": "0x0000000000000000000000000000000000001010",
          "topics": [
            "0x4dfe1bbbcf077ddc3e01291eea2d5c70c2b422b415d95645b9adcfd678cb1d63",
            "0x0000000000000000000000000000000000000000000000000000000000001010",
            "0x000000000000000000000000756bfb8a31b2a21823152d96c88c6b8ae4ab1e99",
            "0x000000000000000000000000915a2284d28bd93de7d6f31173b981204bb666e6"
          ],
          "data": "0x000000000000000000000000000000000000000000000000000570dbe4f4c7ab00000000000000000000000000000000000000000000000065961c437831d10600000000000000000000000000000000000000000000033ecc1fb0a8a5dafa680000000000000000000000000000000000000000000000006590ab67933d095b00000000000000000000000000000000000000000000033ecc2521848acfc213",
          "blockHash": "0x29397b1504e7a1ad251f182717773cc06f52a69912746acde7f95eabeb1fadcd",
          "blockNumber": "0xa6070d",
          "transactionHash": "0x339a12e97b4bb1aa776cfe99719b8460b7b0db99209e912d805897f2a4b6b762",
          "transactionIndex": "0x0",
          "logIndex": "0x1",
          "removed": false
        }
      ],
      "logsBloom": "0x00000004000000000010000000000000000000080000000000000000000000000000000000000001000000000000000000008000000000000001000000000000000000000000000000000000000000800000000000000000000100000000000000000000020000000000000000000800000000000000000080000000000000000000000000000000000000000000000000000000000000000000000000000000200000000000000000000000000000000000000000000102001000000000004000000000000000000001000000000000000002000000000100100000200020000000000000000000000000000800000000000000400000000000001400100000",
      "type": "0x2",
      "transactionHash": "0x339a12e97b4bb1aa776cfe99719b8460b7b0db99209e912d805897f2a4b6b762",
      "transactionIndex": "0x0",
      "blockHash": "0x29397b1504e7a1ad251f182717773cc06f52a69912746acde7f95eabeb1fadcd",
      "blockNumber": "0xa6070d",
      "gasUsed": "0xc695",
      "effectiveGasPrice": "0x70397054e",
      "from": "0x756bfb8a31b2a21823152d96c88c6b8ae4ab1e99",
      "to": "0xbcf86d9859291f3a493c36d742428e8097cc0d1a",
      "contractAddress": null
    },
    {
      "status": "0x1",
      "cumulativeGasUsed": "0xc695",
      "logs": [
        {
          "address": "0xbcf86d9859291f3a493c36d742428e8097cc0d1a",
          "topics": [
            "0x2f8788117e7eff1d82e926ec794901d17c78024a50270940304540a733656f0d",
            "0x0000000000000000000000000000000000000000000000000000000000000000",
            "0x00000000000000000000000056c3e59117f37cf7203a0c6313c46003500b9317",
            "0x000000000000000000000000756bfb8a31b2a21823152d96c88c6b8ae4ab1e99"
          ],
          "data": "0x",
          "blockHash": "0xc990ef0e41b510d898777c65b2ba93611ac61100fe520f9461c2217b716e8863",
          "blockNumber": "0xa60711",
          "transactionHash": "0x1b102f82582956a8c3be4d8ee59c8da16f2caa10a7a515ccd8643cd5789074af",
          "transactionIndex": "0x0",
          "logIndex": "0x0",
          "removed": false
        },
        {
          "address": "0x0000000000000000000000000000000000001010",
          "topics": [
            "0x4dfe1bbbcf077ddc3e01291eea2d5c70c2b422b415d95645b9adcfd678cb1d63",
            "0x0000000000000000000000000000000000000000000000000000000000001010",
            "0x000000000000000000000000756bfb8a31b2a21823152d96c88c6b8ae4ab1e99",
            "0x00000000000000000000000009207a6efee346cb3e4a54ac18523e3715d38b3f"
          ],
          "data": "0x000000000000000000000000000000000000000000000000000570dbe4f4c7ab0000000000000000000000000000000000000000000000006590ab67933166a000000000000000000000000000000000000000000000022affa754aa58690572000000000000000000000000000000000000000000000000658b3a8bae3c9ef500000000000000000000000000000000000000000000022affacc5863d5dcd1d",
          "blockHash": "0xc990ef0e41b510d898777c65b2ba93611ac61100fe520f9461c2217b716e8863",
          "blockNumber": "0xa60711",
          "transactionHash": "0x1b102f82582956a8c3be4d8ee59c8da16f2caa10a7a515ccd8643cd5789074af",
          "transactionIndex": "0x0",
          "logIndex": "0x1",
          "removed": false
        }
      ],
      "logsBloom": "0x00000004000000000000000000000000000000080000000000000000000000000000000000000001000000000000000000008000000000000001010000000000000000000000000000000000010000800000000000000000000100000000000000000000020000000000000000000800000000000000000080000000000000000000000000000000000000000002000000004000000000000000000000000000200000000000000000000000000000000000000000000100001000000000004000000000000000000001000000000000000000000000000100100000000020000000000000000000000000010800000000000000000000000004001000100000",
      "type": "0x2",
      "transactionHash": "0x1b102f82582956a8c3be4d8ee59c8da16f2caa10a7a515ccd8643cd5789074af",
      "transactionIndex": "0x0",
      "blockHash": "0xc990ef0e41b510d898777c65b2ba93611ac61100fe520f9461c2217b716e8863",
      "blockNumber": "0xa60711",
      "gasUsed": "0xc695",
      "effectiveGasPrice": "0x70397054e",
      "from": "0x756bfb8a31b2a21823152d96c88c6b8ae4ab1e99",
      "to": "0xbcf86d9859291f3a493c36d742428e8097cc0d1a",
      "contractAddress": null
    },
    {
      "status": "0x1",
      "cumulativeGasUsed": "0xc684",
      "logs": [
        {
          "address": "0x69f2b0aaed1adf60d6f3c69ff3c35d5564754b61",
          "topics": [
            "0x2f8788117e7eff1d82e926ec794901d17c78024a50270940304540a733656f0d",
            "0x0000000000000000000000000000000000000000000000000000000000000000",
            "0x000000000000000000000000b7f8e58e3a892687700a37248c2482ff846e16d8",
            "0x000000000000000000000000756bfb8a31b2a21823152d96c88c6b8ae4ab1e99"
          ],
          "data": "0x",
          "blockHash": "0x9abfad7cbe0ec2ed9fc447ec233ece0b54c419d48fa9759772380d2f47de3d9d",
          "blockNumber": "0xa60714",
          "transactionHash": "0x5a557f535b521d3ae60dd3b756fed9b127e1965026117876ac073863fee16407",
          "transactionIndex": "0x0",
          "logIndex": "0x0",
          "removed": false
        },
        {
          "address": "0x0000000000000000000000000000000000001010",
          "topics": [
            "0x4dfe1bbbcf077ddc3e01291eea2d5c70c2b422b415d95645b9adcfd678cb1d63",
            "0x0000000000000000000000000000000000000000000000000000000000001010",
            "0x000000000000000000000000756bfb8a31b2a21823152d96c88c6b8ae4ab1e99",
            "0x00000000000000000000000009207a6efee346cb3e4a54ac18523e3715d38b3f"
          ],
          "data": "0x00000000000000000000000000000000000000000000000000057064a7ed6e7c000000000000000000000000000000000000000000000000658b3a8bae30fc3a00000000000000000000000000000000000000000000022affc60a8aba89fd1d0000000000000000000000000000000000000000000000006585ca2706438dbe00000000000000000000000000000000000000000000022affcb7aef62776b99",
          "blockHash": "0x9abfad7cbe0ec2ed9fc447ec233ece0b54c419d48fa9759772380d2f47de3d9d",
          "blockNumber": "0xa60714",
          "transactionHash": "0x5a557f535b521d3ae60dd3b756fed9b127e1965026117876ac073863fee16407",
          "transactionIndex": "0x0",
          "logIndex": "0x1",
          "removed": false
        }
      ],
      "logsBloom": "0x00000004000000000000000000000000000000000000000000000000000000000000000000000000000000000000000000008000000000000001010000000000004000000000000000000000000000800000000000000000000100000000040000000000020000000000000000000800000000000000000080000000000000000000000000000000000000000000000000004000000000000000000000000000200000000000000000000000000000000000000000000102001000000000004000000000000000000001000000000000000000000000000100100000200020000000000000000000000000010800000000000000200000000000000400100000",
      "type": "0x2",
      "transactionHash": "0x5a557f535b521d3ae60dd3b756fed9b127e1965026117876ac073863fee16407",
      "transactionIndex": "0x0",
      "blockHash": "0x9abfad7cbe0ec2ed9fc447ec233ece0b54c419d48fa9759772380d2f47de3d9d",
      "blockNumber": "0xa60714",
      "gasUsed": "0xc684",
      "effectiveGasPrice": "0x70397054e",
      "from": "0x756bfb8a31b2a21823152d96c88c6b8ae4ab1e99",
      "to": "0x69f2b0aaed1adf60d6f3c69ff3c35d5564754b61",
      "contractAddress": null
    },
    {
      "status": "0x1",
      "cumulativeGasUsed": "0x26ebe",
      "logs": [
        {
          "address": "0x69f2b0aaed1adf60d6f3c69ff3c35d5564754b61",
          "topics": [
            "0x2f8788117e7eff1d82e926ec794901d17c78024a50270940304540a733656f0d",
            "0x0000000000000000000000000000000000000000000000000000000000000000",
            "0x00000000000000000000000056c3e59117f37cf7203a0c6313c46003500b9317",
            "0x000000000000000000000000756bfb8a31b2a21823152d96c88c6b8ae4ab1e99"
          ],
          "data": "0x",
          "blockHash": "0x41533bb491730a7133ec4b31330d73b3680bb236e1707e983531a7c0c65a9de6",
          "blockNumber": "0xa60717",
          "transactionHash": "0x756db02b7fa4e5d3672d8a2a6eaabf51a0d36f2e708d481dc2495efd4c2cc314",
          "transactionIndex": "0x1",
          "logIndex": "0x3",
          "removed": false
        },
        {
          "address": "0x0000000000000000000000000000000000001010",
          "topics": [
            "0x4dfe1bbbcf077ddc3e01291eea2d5c70c2b422b415d95645b9adcfd678cb1d63",
            "0x0000000000000000000000000000000000000000000000000000000000001010",
            "0x000000000000000000000000756bfb8a31b2a21823152d96c88c6b8ae4ab1e99",
            "0x00000000000000000000000009207a6efee346cb3e4a54ac18523e3715d38b3f"
          ],
          "data": "0x00000000000000000000000000000000000000000000000000057064a7ed6e7c0000000000000000000000000000000000000000000000006585ca270637ec0200000000000000000000000000000000000000000000022affed5e8bd1925bdf000000000000000000000000000000000000000000000000658059c25e4a7d8600000000000000000000000000000000000000000000022afff2cef0797fca5b",
          "blockHash": "0x41533bb491730a7133ec4b31330d73b3680bb236e1707e983531a7c0c65a9de6",
          "blockNumber": "0xa60717",
          "transactionHash": "0x756db02b7fa4e5d3672d8a2a6eaabf51a0d36f2e708d481dc2495efd4c2cc314",
          "transactionIndex": "0x1",
          "logIndex": "0x4",
          "removed": false
        }
      ],
      "logsBloom": "0x00000004000000000000000000000000000000000000000000000000000000000000000000000000000000000000000000008000000000000001010000000000004000000000000000000000010000800000000000000000000100000000040000000000020000000000000000000800000000000000000080000000000000000000000000000000000000000002000000004000000000000000000000000000200000000000000000000000000000000000000000000100001000000000004000000000000000000001000000000000000000000000000100100000000020000000000000000000000000010800000000000000200000000004000000100000",
      "type": "0x2",
      "transactionHash": "0x756db02b7fa4e5d3672d8a2a6eaabf51a0d36f2e708d481dc2495efd4c2cc314",
      "transactionIndex": "0x1",
      "blockHash": "0x41533bb491730a7133ec4b31330d73b3680bb236e1707e983531a7c0c65a9de6",
      "blockNumber": "0xa60717",
      "gasUsed": "0xc684",
      "effectiveGasPrice": "0x70397054e",
      "from": "0x756bfb8a31b2a21823152d96c88c6b8ae4ab1e99",
      "to": "0x69f2b0aaed1adf60d6f3c69ff3c35d5564754b61",
      "contractAddress": null
    },
    {
      "status": "0x1",
      "cumulativeGasUsed": "0x1f762d",
      "logs": [
        {
          "address": "0xf7bdf34721cf171a7eda086cf53129f28ddc45ee",
          "topics": [
            "0x2f8788117e7eff1d82e926ec794901d17c78024a50270940304540a733656f0d",
            "0x0000000000000000000000000000000000000000000000000000000000000000",
            "0x000000000000000000000000756bfb8a31b2a21823152d96c88c6b8ae4ab1e99",
            "0x000000000000000000000000bcf86d9859291f3a493c36d742428e8097cc0d1a"
          ],
          "data": "0x",
          "blockHash": "0xd25a64c404bc671bc48747b917a514076f10783389b58d7360815fe5f6c275ca",
          "blockNumber": "0xa6071b",
          "transactionHash": "0xfc476ddc14235c6b16fb0bbab9f531c46137085e1da960cae0eed9a47ae0b004",
          "transactionIndex": "0x1",
          "logIndex": "0x4",
          "removed": false
        },
        {
          "address": "0xf7bdf34721cf171a7eda086cf53129f28ddc45ee",
          "topics": [
            "0x2f8788117e7eff1d82e926ec794901d17c78024a50270940304540a733656f0d",
            "0x768dd85fed03ac9c2c0f14fe090b045c29124f162b5fa7d6dd8ca0009807d4db",
            "0x000000000000000000000000756bfb8a31b2a21823152d96c88c6b8ae4ab1e99",
            "0x000000000000000000000000bcf86d9859291f3a493c36d742428e8097cc0d1a"
          ],
          "data": "0x",
          "blockHash": "0xd25a64c404bc671bc48747b917a514076f10783389b58d7360815fe5f6c275ca",
          "blockNumber": "0xa6071b",
          "transactionHash": "0xfc476ddc14235c6b16fb0bbab9f531c46137085e1da960cae0eed9a47ae0b004",
          "transactionIndex": "0x1",
          "logIndex": "0x5",
          "removed": false
        },
        {
          "address": "0xf7bdf34721cf171a7eda086cf53129f28ddc45ee",
          "topics": [
            "0xbd79b86ffe0ab8e8776151514217cd7cacd52c909f66475c3af44e129f0b00ff",
            "0x768dd85fed03ac9c2c0f14fe090b045c29124f162b5fa7d6dd8ca0009807d4db",
            "0x0000000000000000000000000000000000000000000000000000000000000000",
            "0x768dd85fed03ac9c2c0f14fe090b045c29124f162b5fa7d6dd8ca0009807d4db"
          ],
          "data": "0x",
          "blockHash": "0xd25a64c404bc671bc48747b917a514076f10783389b58d7360815fe5f6c275ca",
          "blockNumber": "0xa6071b",
          "transactionHash": "0xfc476ddc14235c6b16fb0bbab9f531c46137085e1da960cae0eed9a47ae0b004",
          "transactionIndex": "0x1",
          "logIndex": "0x6",
          "removed": false
        },
        {
          "address": "0xbcf86d9859291f3a493c36d742428e8097cc0d1a",
          "topics": [
            "0x9b9baa5d69859ba32edc2bc8324addb556bbf24d80c4420733d99d714ab551bd",
            "0x000000000000000000000000f7bdf34721cf171a7eda086cf53129f28ddc45ee",
            "0x000000000000000000000000756bfb8a31b2a21823152d96c88c6b8ae4ab1e99"
          ],
          "data": "0x",
          "blockHash": "0xd25a64c404bc671bc48747b917a514076f10783389b58d7360815fe5f6c275ca",
          "blockNumber": "0xa6071b",
          "transactionHash": "0xfc476ddc14235c6b16fb0bbab9f531c46137085e1da960cae0eed9a47ae0b004",
          "transactionIndex": "0x1",
          "logIndex": "0x7",
          "removed": false
        },
        {
          "address": "0x0000000000000000000000000000000000001010",
          "topics": [
            "0x4dfe1bbbcf077ddc3e01291eea2d5c70c2b422b415d95645b9adcfd678cb1d63",
            "0x0000000000000000000000000000000000000000000000000000000000001010",
            "0x000000000000000000000000756bfb8a31b2a21823152d96c88c6b8ae4ab1e99",
            "0x00000000000000000000000009207a6efee346cb3e4a54ac18523e3715d38b3f"
          ],
          "data": "0x00000000000000000000000000000000000000000000000000cf6a97f8a1c0e7000000000000000000000000000000000000000000000000658059c25e3edbca00000000000000000000000000000000000000000000022b003bdad3aa08847000000000000000000000000000000000000000000000000064b0ef2a659d1ae300000000000000000000000000000000000000000000022b010b456ba2aa4557",
          "blockHash": "0xd25a64c404bc671bc48747b917a514076f10783389b58d7360815fe5f6c275ca",
          "blockNumber": "0xa6071b",
          "transactionHash": "0xfc476ddc14235c6b16fb0bbab9f531c46137085e1da960cae0eed9a47ae0b004",
          "transactionIndex": "0x1",
          "logIndex": "0x8",
          "removed": false
        }
      ],
      "logsBloom": "0x00000004000000000800000000000010080000080000000000002000000000000000000400000001000000000000000000008000000000000001010000000000000000000000000000000000000000800000000000000000000100000000000000000000020000400000000000000800000000000000000080000000000200000000000000000000000000001000000000004000800000000000000000000000200200000000000004000000000008000000000000008100001000000000004000000000000000000001000000020000800000000000000100100000000020000000000000000000020000010800000000000000000000000000001000340000",
      "type": "0x2",
      "transactionHash": "0xfc476ddc14235c6b16fb0bbab9f531c46137085e1da960cae0eed9a47ae0b004",
      "transactionIndex": "0x1",
      "blockHash": "0xd25a64c404bc671bc48747b917a514076f10783389b58d7360815fe5f6c275ca",
      "blockNumber": "0xa6071b",
      "gasUsed": "0x1d9259",
      "effectiveGasPrice": "0x70397054e",
      "from": "0x756bfb8a31b2a21823152d96c88c6b8ae4ab1e99",
      "to": "0xbcf86d9859291f3a493c36d742428e8097cc0d1a",
      "contractAddress": null
    },
    {
      "status": "0x1",
      "cumulativeGasUsed": "0x2cfd1",
      "logs": [
        {
          "address": "0x0000000000000000000000000000000000001010",
          "topics": [
            "0x4dfe1bbbcf077ddc3e01291eea2d5c70c2b422b415d95645b9adcfd678cb1d63",
            "0x0000000000000000000000000000000000000000000000000000000000001010",
            "0x000000000000000000000000756bfb8a31b2a21823152d96c88c6b8ae4ab1e99",
            "0x00000000000000000000000009207a6efee346cb3e4a54ac18523e3715d38b3f"
          ],
          "data": "0x0000000000000000000000000000000000000000000000000013b8cf1607396f00000000000000000000000000000000000000000000000064b0ef2a63e187ac00000000000000000000000000000000000000000000022b010b456ba2aa4557000000000000000000000000000000000000000000000000649d365b4dda4e3d00000000000000000000000000000000000000000000022b011efe3ab8b17ec6",
          "blockHash": "0xb85ce50a4dca77be9c62148338ee9f18395f89310718111e321aa17b63802a33",
          "blockNumber": "0xa6071e",
          "transactionHash": "0x3d44c4da72fe9f4cea3d609c6d86739346160f4c3642e5ed2c1504c53cf7ec22",
          "transactionIndex": "0x0",
          "logIndex": "0x0",
          "removed": false
        }
      ],
      "logsBloom": "0x00000000000000000000000000000000000000000000000000000000000000000000000000000000000000000000000000008000000000000001010000000000000000000000000000000000000000800000000000000000000100000000000000000000000000000000000000000000000000000000000080000000000000000000000000000000000000000000000000004000000000000000000000000000200000000000000000000000000000000000000000000100000000000000004000000000000000000001000000000000000000000000000000100000000000000000000000000000000000010800000000000000000000000000000000100000",
      "type": "0x2",
      "transactionHash": "0x3d44c4da72fe9f4cea3d609c6d86739346160f4c3642e5ed2c1504c53cf7ec22",
      "transactionIndex": "0x0",
      "blockHash": "0xb85ce50a4dca77be9c62148338ee9f18395f89310718111e321aa17b63802a33",
      "blockNumber": "0xa6071e",
      "gasUsed": "0x2cfd1",
      "effectiveGasPrice": "0x70397054e",
      "from": "0x756bfb8a31b2a21823152d96c88c6b8ae4ab1e99",
      "to": "0xf7bdf34721cf171a7eda086cf53129f28ddc45ee",
      "contractAddress": null
    },
    {
      "status": "0x1",
      "cumulativeGasUsed": "0x28baa",
      "logs": [
        {
          "address": "0xf7bdf34721cf171a7eda086cf53129f28ddc45ee",
          "topics": [
            "0xc3d58168c5ae7397731d063d5bbf3d657854427343f4c083240f7aacaa2d0f62",
            "0x000000000000000000000000756bfb8a31b2a21823152d96c88c6b8ae4ab1e99",
            "0x0000000000000000000000000000000000000000000000000000000000000000",
            "0x000000000000000000000000756bfb8a31b2a21823152d96c88c6b8ae4ab1e99"
          ],
          "data": "0x00000000000000000000000000000000000000000000000000000000000000000000000000000000000000000000000000000000000000000000000000000064",
          "blockHash": "0xe235d4deb68297651be8e864d148a9b2d6bbb646adb00b6d7bf85ce000347f2d",
          "blockNumber": "0xa60721",
          "transactionHash": "0xc12963b51da3a76870a91a2bd12c44b2e3c7e8b1615b99ce21685cf6e4b07db5",
          "transactionIndex": "0x0",
          "logIndex": "0x0",
          "removed": false
        },
        {
          "address": "0x0000000000000000000000000000000000001010",
          "topics": [
            "0x4dfe1bbbcf077ddc3e01291eea2d5c70c2b422b415d95645b9adcfd678cb1d63",
            "0x0000000000000000000000000000000000000000000000000000000000001010",
            "0x000000000000000000000000756bfb8a31b2a21823152d96c88c6b8ae4ab1e99",
            "0x000000000000000000000000915a2284d28bd93de7d6f31173b981204bb666e6"
          ],
          "data": "0x0000000000000000000000000000000000000000000000000011dac96ca0b0d6000000000000000000000000000000000000000000000000649d365b4db020fe00000000000000000000000000000000000000000000033ecc37dc19528d9ad4000000000000000000000000000000000000000000000000648b5b91e10f702800000000000000000000000000000000000000000000033ecc49b6e2bf2e4baa",
          "blockHash": "0xe235d4deb68297651be8e864d148a9b2d6bbb646adb00b6d7bf85ce000347f2d",
          "blockNumber": "0xa60721",
          "transactionHash": "0xc12963b51da3a76870a91a2bd12c44b2e3c7e8b1615b99ce21685cf6e4b07db5",
          "transactionIndex": "0x0",
          "logIndex": "0x1",
          "removed": false
        }
      ],
      "logsBloom": "0x00000000000000000010000000000000000000000000000000000000000000000000000400000000000000000000000000008000000000000001000000002000000000000000000000000000000000800000000000000000000100000000000000000000020000000000000000000800000000000000000080000000000000000000000000000000000000000000000000000000000000000000000000000000200200000000000000000000000000000000000000000100000000000000004000000000000000000001000000000000000002000008000000100000000020000000000000000000000000000800000000000000400000000000080000300000",
      "type": "0x2",
      "transactionHash": "0xc12963b51da3a76870a91a2bd12c44b2e3c7e8b1615b99ce21685cf6e4b07db5",
      "transactionIndex": "0x0",
      "blockHash": "0xe235d4deb68297651be8e864d148a9b2d6bbb646adb00b6d7bf85ce000347f2d",
      "blockNumber": "0xa60721",
      "gasUsed": "0x28baa",
      "effectiveGasPrice": "0x70397054e",
      "from": "0x756bfb8a31b2a21823152d96c88c6b8ae4ab1e99",
      "to": "0xf7bdf34721cf171a7eda086cf53129f28ddc45ee",
      "contractAddress": null
    },
    {
      "status": "0x1",
      "cumulativeGasUsed": "0xb599",
      "logs": [
        {
          "address": "0xf7bdf34721cf171a7eda086cf53129f28ddc45ee",
          "topics": [
            "0x17307eab39ab6107e8899845ad3d59bd9653f200f220920489ca2b5937696c31",
            "0x000000000000000000000000756bfb8a31b2a21823152d96c88c6b8ae4ab1e99",
            "0x00000000000000000000000069f2b0aaed1adf60d6f3c69ff3c35d5564754b61"
          ],
          "data": "0x0000000000000000000000000000000000000000000000000000000000000001",
          "blockHash": "0x875888fa1fc2679442b3f44a4db6dd1b04a9bab0da4c71ed0cdbcac457f3c361",
          "blockNumber": "0xa60725",
          "transactionHash": "0x34796613c739857cbc427c272272c361f70cc659e428969421c6ed0c016b9103",
          "transactionIndex": "0x0",
          "logIndex": "0x0",
          "removed": false
        },
        {
          "address": "0x0000000000000000000000000000000000001010",
          "topics": [
            "0x4dfe1bbbcf077ddc3e01291eea2d5c70c2b422b415d95645b9adcfd678cb1d63",
            "0x0000000000000000000000000000000000000000000000000000000000001010",
            "0x000000000000000000000000756bfb8a31b2a21823152d96c88c6b8ae4ab1e99",
            "0x000000000000000000000000915a2284d28bd93de7d6f31173b981204bb666e6"
          ],
          "data": "0x0000000000000000000000000000000000000000000000000004f9baebf7ada7000000000000000000000000000000000000000000000000648b5b91e0e9413200000000000000000000000000000000000000000000033ecc49b6e2bf2e4baa000000000000000000000000000000000000000000000000648661d6f4f1938b00000000000000000000000000000000000000000000033ecc4eb09dab25f951",
          "blockHash": "0x875888fa1fc2679442b3f44a4db6dd1b04a9bab0da4c71ed0cdbcac457f3c361",
          "blockNumber": "0xa60725",
          "transactionHash": "0x34796613c739857cbc427c272272c361f70cc659e428969421c6ed0c016b9103",
          "transactionIndex": "0x0",
          "logIndex": "0x1",
          "removed": false
        }
      ],
      "logsBloom": "0x00000000000000000010000400000000000000000000000000000000000000000000000400000000000000000000000000008000000000000001000000000000000000000000000000000000000000800000000000000000000100000000000002000000000000000000000000000000000000000000000080000000000000000000000000000000000000000000000000000000000000000000000000000000200200000000000000000000000040000000000000000100000000000000004000000000000000000001000000000000000002000000000000100000000000000000200800000000000000000800000000000010400000000000000000300000",
      "type": "0x2",
      "transactionHash": "0x34796613c739857cbc427c272272c361f70cc659e428969421c6ed0c016b9103",
      "transactionIndex": "0x0",
      "blockHash": "0x875888fa1fc2679442b3f44a4db6dd1b04a9bab0da4c71ed0cdbcac457f3c361",
      "blockNumber": "0xa60725",
      "gasUsed": "0xb599",
      "effectiveGasPrice": "0x70397054e",
      "from": "0x756bfb8a31b2a21823152d96c88c6b8ae4ab1e99",
      "to": "0xf7bdf34721cf171a7eda086cf53129f28ddc45ee",
      "contractAddress": null
    },
    {
      "status": "0x1",
      "cumulativeGasUsed": "0x33fb9",
      "logs": [
        {
          "address": "0xf7bdf34721cf171a7eda086cf53129f28ddc45ee",
          "topics": [
            "0xc3d58168c5ae7397731d063d5bbf3d657854427343f4c083240f7aacaa2d0f62",
            "0x00000000000000000000000069f2b0aaed1adf60d6f3c69ff3c35d5564754b61",
            "0x000000000000000000000000756bfb8a31b2a21823152d96c88c6b8ae4ab1e99",
            "0x00000000000000000000000069f2b0aaed1adf60d6f3c69ff3c35d5564754b61"
          ],
          "data": "0x00000000000000000000000000000000000000000000000000000000000000000000000000000000000000000000000000000000000000000000000000000032",
          "blockHash": "0x8191eaa8aa005e2b87447c2bbcad83f6542279b35c396e157e8ef42f2335b007",
          "blockNumber": "0xa60728",
          "transactionHash": "0xb37cdf4cbc3d5bac852ac27ce4b5dd13dfc6afc679e4533fe1885049e0940dc7",
          "transactionIndex": "0x0",
          "logIndex": "0x0",
          "removed": false
        },
        {
          "address": "0x69f2b0aaed1adf60d6f3c69ff3c35d5564754b61",
          "topics": [
            "0xda48d1d468794cea4155aceb51a52f16b0c495ed6a5fbe3283972f05d95c823f",
            "0x0000000000000000000000000000000000000000000000000000000000000000",
            "0x000000000000000000000000f7bdf34721cf171a7eda086cf53129f28ddc45ee",
            "0x0000000000000000000000000000000000000000000000000000000000000000"
          ],
          "data": "0x000000000000000000000000000000000000000000000000000000000000003200000000000000000000000000000000000000000000000000005af3107a4000000000000000000000000000756bfb8a31b2a21823152d96c88c6b8ae4ab1e99",
          "blockHash": "0x8191eaa8aa005e2b87447c2bbcad83f6542279b35c396e157e8ef42f2335b007",
          "blockNumber": "0xa60728",
          "transactionHash": "0xb37cdf4cbc3d5bac852ac27ce4b5dd13dfc6afc679e4533fe1885049e0940dc7",
          "transactionIndex": "0x0",
          "logIndex": "0x1",
          "removed": false
        },
        {
          "address": "0x0000000000000000000000000000000000001010",
          "topics": [
            "0x4dfe1bbbcf077ddc3e01291eea2d5c70c2b422b415d95645b9adcfd678cb1d63",
            "0x0000000000000000000000000000000000000000000000000000000000001010",
            "0x000000000000000000000000756bfb8a31b2a21823152d96c88c6b8ae4ab1e99",
            "0x000000000000000000000000915a2284d28bd93de7d6f31173b981204bb666e6"
          ],
          "data": "0x0000000000000000000000000000000000000000000000000016c9b8d22a4b87000000000000000000000000000000000000000000000000648661d6f4e6ef9400000000000000000000000000000000000000000000033ecc64f40986014151000000000000000000000000000000000000000000000000646f981e22bca40d00000000000000000000000000000000000000000000033ecc7bbdc2582b8cd8",
          "blockHash": "0x8191eaa8aa005e2b87447c2bbcad83f6542279b35c396e157e8ef42f2335b007",
          "blockNumber": "0xa60728",
          "transactionHash": "0xb37cdf4cbc3d5bac852ac27ce4b5dd13dfc6afc679e4533fe1885049e0940dc7",
          "transactionIndex": "0x0",
          "logIndex": "0x2",
          "removed": false
        }
      ],
      "logsBloom": "0x00000000000000000050000400000010000000000000000000002000000000000000000400000000000000000000000000008000000000000001000000002000004000000000000000000000800000800000000000000000000100000000040000000000020000000000000000000800000000000000000080000000000000000000000000000000000000000000000000000000040000000000000000000000200200000000000000000000000040000000000000008100000000000000004000000000000000000001000000000000000002000008000000100000000020000000000000000000000000000800000000000010600000000000080000300000",
      "type": "0x2",
      "transactionHash": "0xb37cdf4cbc3d5bac852ac27ce4b5dd13dfc6afc679e4533fe1885049e0940dc7",
      "transactionIndex": "0x0",
      "blockHash": "0x8191eaa8aa005e2b87447c2bbcad83f6542279b35c396e157e8ef42f2335b007",
      "blockNumber": "0xa60728",
      "gasUsed": "0x33fb9",
      "effectiveGasPrice": "0x70397054e",
      "from": "0x756bfb8a31b2a21823152d96c88c6b8ae4ab1e99",
      "to": "0x69f2b0aaed1adf60d6f3c69ff3c35d5564754b61",
      "contractAddress": null
    },
    {
      "status": "0x1",
      "cumulativeGasUsed": "0x22603",
      "logs": [
        {
          "address": "0x0000000000000000000000000000000000001010",
          "topics": [
            "0xe6497e3ee548a3372136af2fcb0696db31fc6cf20260707645068bd3fe97f3c4",
            "0x0000000000000000000000000000000000000000000000000000000000001010",
            "0x000000000000000000000000492575382bd9fb683e76e793c7e40ea1df4b4ac0",
            "0x00000000000000000000000069f2b0aaed1adf60d6f3c69ff3c35d5564754b61"
          ],
          "data": "0x0000000000000000000000000000000000000000000000000001c6bf52634000000000000000000000000000000000000000000000000000228aced4d73e466800000000000000000000000000000000000000000000000000000000000000000000000000000000000000000000000000000000000000002289081584db06680000000000000000000000000000000000000000000000000001c6bf52634000",
          "blockHash": "0x7ec40da4d7c54055b2274743c1528f41c5035ff573f5c6d6933b2685cc915f8b",
          "blockNumber": "0xa6072c",
          "transactionHash": "0x05b135d8d81b38beaa0088949127fff314c79aaee45edbdc5d7b2a2582360ec6",
          "transactionIndex": "0x0",
          "logIndex": "0x0",
          "removed": false
        },
        {
          "address": "0x69f2b0aaed1adf60d6f3c69ff3c35d5564754b61",
          "topics": [
            "0x965e81d8677f6abdbca7b96fb8e7c1447d6cc133a6e43194241f12fefb67ee29",
            "0x0000000000000000000000000000000000000000000000000000000000000000"
          ],
          "data": "0x",
          "blockHash": "0x7ec40da4d7c54055b2274743c1528f41c5035ff573f5c6d6933b2685cc915f8b",
          "blockNumber": "0xa6072c",
          "transactionHash": "0x05b135d8d81b38beaa0088949127fff314c79aaee45edbdc5d7b2a2582360ec6",
          "transactionIndex": "0x0",
          "logIndex": "0x1",
          "removed": false
        },
        {
          "address": "0x69f2b0aaed1adf60d6f3c69ff3c35d5564754b61",
          "topics": [
            "0x965e81d8677f6abdbca7b96fb8e7c1447d6cc133a6e43194241f12fefb67ee29",
            "0x0000000000000000000000000000000000000000000000000000000000000001"
          ],
          "data": "0x",
          "blockHash": "0x7ec40da4d7c54055b2274743c1528f41c5035ff573f5c6d6933b2685cc915f8b",
          "blockNumber": "0xa6072c",
          "transactionHash": "0x05b135d8d81b38beaa0088949127fff314c79aaee45edbdc5d7b2a2582360ec6",
          "transactionIndex": "0x0",
          "logIndex": "0x2",
          "removed": false
        },
        {
          "address": "0x69f2b0aaed1adf60d6f3c69ff3c35d5564754b61",
          "topics": [
            "0x965e81d8677f6abdbca7b96fb8e7c1447d6cc133a6e43194241f12fefb67ee29",
            "0x0000000000000000000000000000000000000000000000000000000000000002"
          ],
          "data": "0x",
          "blockHash": "0x7ec40da4d7c54055b2274743c1528f41c5035ff573f5c6d6933b2685cc915f8b",
          "blockNumber": "0xa6072c",
          "transactionHash": "0x05b135d8d81b38beaa0088949127fff314c79aaee45edbdc5d7b2a2582360ec6",
          "transactionIndex": "0x0",
          "logIndex": "0x3",
          "removed": false
        },
        {
          "address": "0x69f2b0aaed1adf60d6f3c69ff3c35d5564754b61",
          "topics": [
            "0x965e81d8677f6abdbca7b96fb8e7c1447d6cc133a6e43194241f12fefb67ee29",
            "0x0000000000000000000000000000000000000000000000000000000000000003"
          ],
          "data": "0x",
          "blockHash": "0x7ec40da4d7c54055b2274743c1528f41c5035ff573f5c6d6933b2685cc915f8b",
          "blockNumber": "0xa6072c",
          "transactionHash": "0x05b135d8d81b38beaa0088949127fff314c79aaee45edbdc5d7b2a2582360ec6",
          "transactionIndex": "0x0",
          "logIndex": "0x4",
          "removed": false
        },
        {
          "address": "0x69f2b0aaed1adf60d6f3c69ff3c35d5564754b61",
          "topics": [
            "0x965e81d8677f6abdbca7b96fb8e7c1447d6cc133a6e43194241f12fefb67ee29",
            "0x0000000000000000000000000000000000000000000000000000000000000004"
          ],
          "data": "0x",
          "blockHash": "0x7ec40da4d7c54055b2274743c1528f41c5035ff573f5c6d6933b2685cc915f8b",
          "blockNumber": "0xa6072c",
          "transactionHash": "0x05b135d8d81b38beaa0088949127fff314c79aaee45edbdc5d7b2a2582360ec6",
          "transactionIndex": "0x0",
          "logIndex": "0x5",
          "removed": false
        },
        {
          "address": "0x69f2b0aaed1adf60d6f3c69ff3c35d5564754b61",
          "topics": [
            "0x965e81d8677f6abdbca7b96fb8e7c1447d6cc133a6e43194241f12fefb67ee29",
            "0x0000000000000000000000000000000000000000000000000000000000000005"
          ],
          "data": "0x",
          "blockHash": "0x7ec40da4d7c54055b2274743c1528f41c5035ff573f5c6d6933b2685cc915f8b",
          "blockNumber": "0xa6072c",
          "transactionHash": "0x05b135d8d81b38beaa0088949127fff314c79aaee45edbdc5d7b2a2582360ec6",
          "transactionIndex": "0x0",
          "logIndex": "0x6",
          "removed": false
        },
        {
          "address": "0x69f2b0aaed1adf60d6f3c69ff3c35d5564754b61",
          "topics": [
            "0x965e81d8677f6abdbca7b96fb8e7c1447d6cc133a6e43194241f12fefb67ee29",
            "0x0000000000000000000000000000000000000000000000000000000000000006"
          ],
          "data": "0x",
          "blockHash": "0x7ec40da4d7c54055b2274743c1528f41c5035ff573f5c6d6933b2685cc915f8b",
          "blockNumber": "0xa6072c",
          "transactionHash": "0x05b135d8d81b38beaa0088949127fff314c79aaee45edbdc5d7b2a2582360ec6",
          "transactionIndex": "0x0",
          "logIndex": "0x7",
          "removed": false
        },
        {
          "address": "0x69f2b0aaed1adf60d6f3c69ff3c35d5564754b61",
          "topics": [
            "0x965e81d8677f6abdbca7b96fb8e7c1447d6cc133a6e43194241f12fefb67ee29",
            "0x0000000000000000000000000000000000000000000000000000000000000007"
          ],
          "data": "0x",
          "blockHash": "0x7ec40da4d7c54055b2274743c1528f41c5035ff573f5c6d6933b2685cc915f8b",
          "blockNumber": "0xa6072c",
          "transactionHash": "0x05b135d8d81b38beaa0088949127fff314c79aaee45edbdc5d7b2a2582360ec6",
          "transactionIndex": "0x0",
          "logIndex": "0x8",
          "removed": false
        },
        {
          "address": "0x69f2b0aaed1adf60d6f3c69ff3c35d5564754b61",
          "topics": [
            "0x965e81d8677f6abdbca7b96fb8e7c1447d6cc133a6e43194241f12fefb67ee29",
            "0x0000000000000000000000000000000000000000000000000000000000000008"
          ],
          "data": "0x",
          "blockHash": "0x7ec40da4d7c54055b2274743c1528f41c5035ff573f5c6d6933b2685cc915f8b",
          "blockNumber": "0xa6072c",
          "transactionHash": "0x05b135d8d81b38beaa0088949127fff314c79aaee45edbdc5d7b2a2582360ec6",
          "transactionIndex": "0x0",
          "logIndex": "0x9",
          "removed": false
        },
        {
          "address": "0x69f2b0aaed1adf60d6f3c69ff3c35d5564754b61",
          "topics": [
            "0x965e81d8677f6abdbca7b96fb8e7c1447d6cc133a6e43194241f12fefb67ee29",
            "0x0000000000000000000000000000000000000000000000000000000000000009"
          ],
          "data": "0x",
          "blockHash": "0x7ec40da4d7c54055b2274743c1528f41c5035ff573f5c6d6933b2685cc915f8b",
          "blockNumber": "0xa6072c",
          "transactionHash": "0x05b135d8d81b38beaa0088949127fff314c79aaee45edbdc5d7b2a2582360ec6",
          "transactionIndex": "0x0",
          "logIndex": "0xa",
          "removed": false
        },
        {
          "address": "0x69f2b0aaed1adf60d6f3c69ff3c35d5564754b61",
          "topics": [
            "0x965e81d8677f6abdbca7b96fb8e7c1447d6cc133a6e43194241f12fefb67ee29",
            "0x000000000000000000000000000000000000000000000000000000000000000a"
          ],
          "data": "0x",
          "blockHash": "0x7ec40da4d7c54055b2274743c1528f41c5035ff573f5c6d6933b2685cc915f8b",
          "blockNumber": "0xa6072c",
          "transactionHash": "0x05b135d8d81b38beaa0088949127fff314c79aaee45edbdc5d7b2a2582360ec6",
          "transactionIndex": "0x0",
          "logIndex": "0xb",
          "removed": false
        },
        {
          "address": "0x69f2b0aaed1adf60d6f3c69ff3c35d5564754b61",
          "topics": [
            "0x965e81d8677f6abdbca7b96fb8e7c1447d6cc133a6e43194241f12fefb67ee29",
            "0x000000000000000000000000000000000000000000000000000000000000000b"
          ],
          "data": "0x",
          "blockHash": "0x7ec40da4d7c54055b2274743c1528f41c5035ff573f5c6d6933b2685cc915f8b",
          "blockNumber": "0xa6072c",
          "transactionHash": "0x05b135d8d81b38beaa0088949127fff314c79aaee45edbdc5d7b2a2582360ec6",
          "transactionIndex": "0x0",
          "logIndex": "0xc",
          "removed": false
        },
        {
          "address": "0x69f2b0aaed1adf60d6f3c69ff3c35d5564754b61",
          "topics": [
            "0x965e81d8677f6abdbca7b96fb8e7c1447d6cc133a6e43194241f12fefb67ee29",
            "0x000000000000000000000000000000000000000000000000000000000000000c"
          ],
          "data": "0x",
          "blockHash": "0x7ec40da4d7c54055b2274743c1528f41c5035ff573f5c6d6933b2685cc915f8b",
          "blockNumber": "0xa6072c",
          "transactionHash": "0x05b135d8d81b38beaa0088949127fff314c79aaee45edbdc5d7b2a2582360ec6",
          "transactionIndex": "0x0",
          "logIndex": "0xd",
          "removed": false
        },
        {
          "address": "0x0000000000000000000000000000000000001010",
          "topics": [
            "0xe6497e3ee548a3372136af2fcb0696db31fc6cf20260707645068bd3fe97f3c4",
            "0x0000000000000000000000000000000000000000000000000000000000001010",
            "0x00000000000000000000000069f2b0aaed1adf60d6f3c69ff3c35d5564754b61",
            "0x000000000000000000000000492575382bd9fb683e76e793c7e40ea1df4b4ac0"
          ],
          "data": "0x000000000000000000000000000000000000000000000000000016bcc41e90000000000000000000000000000000000000000000000000000001c6bf526340000000000000000000000000000000000000000000000000002289081584db06680000000000000000000000000000000000000000000000000001b0028e44b00000000000000000000000000000000000000000000000000022891ed248f99668",
          "blockHash": "0x7ec40da4d7c54055b2274743c1528f41c5035ff573f5c6d6933b2685cc915f8b",
          "blockNumber": "0xa6072c",
          "transactionHash": "0x05b135d8d81b38beaa0088949127fff314c79aaee45edbdc5d7b2a2582360ec6",
          "transactionIndex": "0x0",
          "logIndex": "0xe",
          "removed": false
        },
        {
          "address": "0x69f2b0aaed1adf60d6f3c69ff3c35d5564754b61",
          "topics": [
            "0x965e81d8677f6abdbca7b96fb8e7c1447d6cc133a6e43194241f12fefb67ee29",
            "0x000000000000000000000000000000000000000000000000000000000000000d"
          ],
          "data": "0x",
          "blockHash": "0x7ec40da4d7c54055b2274743c1528f41c5035ff573f5c6d6933b2685cc915f8b",
          "blockNumber": "0xa6072c",
          "transactionHash": "0x05b135d8d81b38beaa0088949127fff314c79aaee45edbdc5d7b2a2582360ec6",
          "transactionIndex": "0x0",
          "logIndex": "0xf",
          "removed": false
        },
        {
          "address": "0x0000000000000000000000000000000000001010",
          "topics": [
            "0xe6497e3ee548a3372136af2fcb0696db31fc6cf20260707645068bd3fe97f3c4",
            "0x0000000000000000000000000000000000000000000000000000000000001010",
            "0x00000000000000000000000069f2b0aaed1adf60d6f3c69ff3c35d5564754b61",
            "0x000000000000000000000000492575382bd9fb683e76e793c7e40ea1df4b4ac0"
          ],
          "data": "0x000000000000000000000000000000000000000000000000000016bcc41e90000000000000000000000000000000000000000000000000000001b0028e44b00000000000000000000000000000000000000000000000000022891ed248f9966800000000000000000000000000000000000000000000000000019945ca2620000000000000000000000000000000000000000000000000002289358f0d182668",
          "blockHash": "0x7ec40da4d7c54055b2274743c1528f41c5035ff573f5c6d6933b2685cc915f8b",
          "blockNumber": "0xa6072c",
          "transactionHash": "0x05b135d8d81b38beaa0088949127fff314c79aaee45edbdc5d7b2a2582360ec6",
          "transactionIndex": "0x0",
          "logIndex": "0x10",
          "removed": false
        },
        {
          "address": "0x69f2b0aaed1adf60d6f3c69ff3c35d5564754b61",
          "topics": [
            "0x965e81d8677f6abdbca7b96fb8e7c1447d6cc133a6e43194241f12fefb67ee29",
            "0x000000000000000000000000000000000000000000000000000000000000000e"
          ],
          "data": "0x",
          "blockHash": "0x7ec40da4d7c54055b2274743c1528f41c5035ff573f5c6d6933b2685cc915f8b",
          "blockNumber": "0xa6072c",
          "transactionHash": "0x05b135d8d81b38beaa0088949127fff314c79aaee45edbdc5d7b2a2582360ec6",
          "transactionIndex": "0x0",
          "logIndex": "0x11",
          "removed": false
        },
        {
          "address": "0x0000000000000000000000000000000000001010",
          "topics": [
            "0xe6497e3ee548a3372136af2fcb0696db31fc6cf20260707645068bd3fe97f3c4",
            "0x0000000000000000000000000000000000000000000000000000000000001010",
            "0x00000000000000000000000069f2b0aaed1adf60d6f3c69ff3c35d5564754b61",
            "0x000000000000000000000000756bfb8a31b2a21823152d96c88c6b8ae4ab1e99"
          ],
          "data": "0x00000000000000000000000000000000000000000000000000019945ca26200000000000000000000000000000000000000000000000000000019945ca262000000000000000000000000000000000000000000000000000646f981e228be836000000000000000000000000000000000000000000000000000000000000000000000000000000000000000000000000000000000000000064713163ecb20836",
          "blockHash": "0x7ec40da4d7c54055b2274743c1528f41c5035ff573f5c6d6933b2685cc915f8b",
          "blockNumber": "0xa6072c",
          "transactionHash": "0x05b135d8d81b38beaa0088949127fff314c79aaee45edbdc5d7b2a2582360ec6",
          "transactionIndex": "0x0",
          "logIndex": "0x12",
          "removed": false
        },
        {
          "address": "0x69f2b0aaed1adf60d6f3c69ff3c35d5564754b61",
          "topics": [
            "0x965e81d8677f6abdbca7b96fb8e7c1447d6cc133a6e43194241f12fefb67ee29",
            "0x000000000000000000000000000000000000000000000000000000000000000f"
          ],
          "data": "0x",
          "blockHash": "0x7ec40da4d7c54055b2274743c1528f41c5035ff573f5c6d6933b2685cc915f8b",
          "blockNumber": "0xa6072c",
          "transactionHash": "0x05b135d8d81b38beaa0088949127fff314c79aaee45edbdc5d7b2a2582360ec6",
          "transactionIndex": "0x0",
          "logIndex": "0x13",
          "removed": false
        },
        {
          "address": "0x69f2b0aaed1adf60d6f3c69ff3c35d5564754b61",
          "topics": [
            "0x965e81d8677f6abdbca7b96fb8e7c1447d6cc133a6e43194241f12fefb67ee29",
            "0x0000000000000000000000000000000000000000000000000000000000000015"
          ],
          "data": "0x",
          "blockHash": "0x7ec40da4d7c54055b2274743c1528f41c5035ff573f5c6d6933b2685cc915f8b",
          "blockNumber": "0xa6072c",
          "transactionHash": "0x05b135d8d81b38beaa0088949127fff314c79aaee45edbdc5d7b2a2582360ec6",
          "transactionIndex": "0x0",
          "logIndex": "0x14",
          "removed": false
        },
        {
          "address": "0xf7bdf34721cf171a7eda086cf53129f28ddc45ee",
          "topics": [
            "0xc3d58168c5ae7397731d063d5bbf3d657854427343f4c083240f7aacaa2d0f62",
            "0x00000000000000000000000069f2b0aaed1adf60d6f3c69ff3c35d5564754b61",
            "0x00000000000000000000000069f2b0aaed1adf60d6f3c69ff3c35d5564754b61",
            "0x000000000000000000000000492575382bd9fb683e76e793c7e40ea1df4b4ac0"
          ],
          "data": "0x00000000000000000000000000000000000000000000000000000000000000000000000000000000000000000000000000000000000000000000000000000005",
          "blockHash": "0x7ec40da4d7c54055b2274743c1528f41c5035ff573f5c6d6933b2685cc915f8b",
          "blockNumber": "0xa6072c",
          "transactionHash": "0x05b135d8d81b38beaa0088949127fff314c79aaee45edbdc5d7b2a2582360ec6",
          "transactionIndex": "0x0",
          "logIndex": "0x15",
          "removed": false
        },
        {
          "address": "0x69f2b0aaed1adf60d6f3c69ff3c35d5564754b61",
          "topics": [
            "0x965e81d8677f6abdbca7b96fb8e7c1447d6cc133a6e43194241f12fefb67ee29",
            "0x0000000000000000000000000000000000000000000000000000000000000016"
          ],
          "data": "0x",
          "blockHash": "0x7ec40da4d7c54055b2274743c1528f41c5035ff573f5c6d6933b2685cc915f8b",
          "blockNumber": "0xa6072c",
          "transactionHash": "0x05b135d8d81b38beaa0088949127fff314c79aaee45edbdc5d7b2a2582360ec6",
          "transactionIndex": "0x0",
          "logIndex": "0x16",
          "removed": false
        },
        {
          "address": "0x69f2b0aaed1adf60d6f3c69ff3c35d5564754b61",
          "topics": [
            "0x965e81d8677f6abdbca7b96fb8e7c1447d6cc133a6e43194241f12fefb67ee29",
            "0x0000000000000000000000000000000000000000000000000000000000000017"
          ],
          "data": "0x",
          "blockHash": "0x7ec40da4d7c54055b2274743c1528f41c5035ff573f5c6d6933b2685cc915f8b",
          "blockNumber": "0xa6072c",
          "transactionHash": "0x05b135d8d81b38beaa0088949127fff314c79aaee45edbdc5d7b2a2582360ec6",
          "transactionIndex": "0x0",
          "logIndex": "0x17",
          "removed": false
        },
        {
          "address": "0x69f2b0aaed1adf60d6f3c69ff3c35d5564754b61",
          "topics": [
            "0x1e7abafb1a786c4e6394b5c494f50a97e3802ff2ce462eca4fe6a2dd4e1f92e8",
            "0x0000000000000000000000000000000000000000000000000000000000000000",
            "0x000000000000000000000000492575382bd9fb683e76e793c7e40ea1df4b4ac0"
          ],
          "data": "0x0000000000000000000000000000000000000000000000000000000000000005",
          "blockHash": "0x7ec40da4d7c54055b2274743c1528f41c5035ff573f5c6d6933b2685cc915f8b",
          "blockNumber": "0xa6072c",
          "transactionHash": "0x05b135d8d81b38beaa0088949127fff314c79aaee45edbdc5d7b2a2582360ec6",
          "transactionIndex": "0x0",
          "logIndex": "0x18",
          "removed": false
        },
        {
          "address": "0x69f2b0aaed1adf60d6f3c69ff3c35d5564754b61",
          "topics": [
            "0x965e81d8677f6abdbca7b96fb8e7c1447d6cc133a6e43194241f12fefb67ee29",
            "0x0000000000000000000000000000000000000000000000000000000000000018"
          ],
          "data": "0x",
          "blockHash": "0x7ec40da4d7c54055b2274743c1528f41c5035ff573f5c6d6933b2685cc915f8b",
          "blockNumber": "0xa6072c",
          "transactionHash": "0x05b135d8d81b38beaa0088949127fff314c79aaee45edbdc5d7b2a2582360ec6",
          "transactionIndex": "0x0",
          "logIndex": "0x19",
          "removed": false
        },
        {
          "address": "0x0000000000000000000000000000000000001010",
          "topics": [
            "0x4dfe1bbbcf077ddc3e01291eea2d5c70c2b422b415d95645b9adcfd678cb1d63",
            "0x0000000000000000000000000000000000000000000000000000000000001010",
            "0x000000000000000000000000492575382bd9fb683e76e793c7e40ea1df4b4ac0",
            "0x000000000000000000000000915a2284d28bd93de7d6f31173b981204bb666e6"
          ],
          "data": "0x000000000000000000000000000000000000000000000000000f11cb800a69bd00000000000000000000000000000000000000000000000022a0d8d1874e4b9200000000000000000000000000000000000000000000033ecc890053c15e7ee00000000000000000000000000000000000000000000000002291c7060743e1d500000000000000000000000000000000000000000000033ecc98121f4168e89d",
          "blockHash": "0x7ec40da4d7c54055b2274743c1528f41c5035ff573f5c6d6933b2685cc915f8b",
          "blockNumber": "0xa6072c",
          "transactionHash": "0x05b135d8d81b38beaa0088949127fff314c79aaee45edbdc5d7b2a2582360ec6",
          "transactionIndex": "0x0",
          "logIndex": "0x1a",
          "removed": false
        }
      ],
      "logsBloom": "0x04000000000000000050004400000000000002000000000000000000000000000080000400000200000000100000000000109000060480000021001000242000005030000000000800000000000000800042000000040000000100000002040008000000020000000000000000000800201000800000000080200000040000000080000400000800010000000000001008001800000000000000000000000000200200001000000000000100010040000000000000800120022000080000404040100000000000000001000000000000002002008008800020148100000060222000000200000000000000000800000000000010608000040008080000b80000",
      "type": "0x2",
      "transactionHash": "0x05b135d8d81b38beaa0088949127fff314c79aaee45edbdc5d7b2a2582360ec6",
      "transactionIndex": "0x0",
      "blockHash": "0x7ec40da4d7c54055b2274743c1528f41c5035ff573f5c6d6933b2685cc915f8b",
      "blockNumber": "0xa6072c",
      "gasUsed": "0x22603",
      "effectiveGasPrice": "0x70397054e",
      "from": "0x492575382bd9fb683e76e793c7e40ea1df4b4ac0",
      "to": "0x69f2b0aaed1adf60d6f3c69ff3c35d5564754b61",
      "contractAddress": null
    }
  ],
  "libraries": [],
  "pending": [],
  "returns": {},
  "timestamp": 1724008748,
  "chain": 80002,
  "commit": "acea5a1"
}